{
	"contracts/TransCryptoDApp/TransCryptoGen.sol": {
		"DeadManSwitchMulti": {
			"abi": [
				{
					"inputs": [
						{
							"internalType": "address[]",
							"name": "_beneficiaries",
							"type": "address[]"
						},
						{
							"internalType": "uint256",
							"name": "_timeoutPeriod",
							"type": "uint256"
						}
					],
					"stateMutability": "payable",
					"type": "constructor"
				},
				{
					"anonymous": false,
					"inputs": [
						{
							"indexed": true,
							"internalType": "address",
							"name": "triggeredBy",
							"type": "address"
						},
						{
							"indexed": false,
							"internalType": "uint256",
							"name": "totalAmount",
							"type": "uint256"
						},
						{
							"indexed": false,
							"internalType": "uint256",
							"name": "timestamp",
							"type": "uint256"
						}
					],
					"name": "Claimed",
					"type": "event"
				},
				{
					"anonymous": false,
					"inputs": [
						{
							"indexed": true,
							"internalType": "address",
							"name": "sender",
							"type": "address"
						},
						{
							"indexed": false,
							"internalType": "uint256",
							"name": "timestamp",
							"type": "uint256"
						}
					],
					"name": "Pinged",
					"type": "event"
				},
				{
					"inputs": [
						{
							"internalType": "uint256",
							"name": "",
							"type": "uint256"
						}
					],
					"name": "beneficiaries",
					"outputs": [
						{
							"internalType": "address",
							"name": "",
							"type": "address"
						}
					],
					"stateMutability": "view",
					"type": "function"
				},
				{
					"inputs": [],
					"name": "claimFunds",
					"outputs": [],
					"stateMutability": "nonpayable",
					"type": "function"
				},
				{
					"inputs": [],
					"name": "lastPing",
					"outputs": [
						{
							"internalType": "uint256",
							"name": "",
							"type": "uint256"
						}
					],
					"stateMutability": "view",
					"type": "function"
				},
				{
					"inputs": [],
					"name": "owner",
					"outputs": [
						{
							"internalType": "address",
							"name": "",
							"type": "address"
						}
					],
					"stateMutability": "view",
					"type": "function"
				},
				{
					"inputs": [],
					"name": "ping",
					"outputs": [],
					"stateMutability": "nonpayable",
					"type": "function"
				},
				{
					"inputs": [],
					"name": "timeoutPeriod",
					"outputs": [
						{
							"internalType": "uint256",
							"name": "",
							"type": "uint256"
						}
					],
					"stateMutability": "view",
					"type": "function"
				},
				{
					"stateMutability": "payable",
					"type": "receive"
				}
			],
			"devdoc": {
				"author": "You",
				"kind": "dev",
				"methods": {
					"constructor": {
						"params": {
							"_beneficiaries": "List of addresses to receive funds if owner is inactive",
							"_timeoutPeriod": "Time (in seconds) after which funds can be claimed"
						}
					}
				},
				"title": "Dead Man's Switch with Multi-Beneficiary Support and Events",
				"version": 1
			},
			"evm": {
				"assembly": "    /* \"contracts/TransCryptoDApp/TransCryptoGen.sol\":234:2065  contract DeadManSwitchMulti {... */\n  mstore(0x40, 0xa0)\n    /* \"contracts/TransCryptoDApp/TransCryptoGen.sol\":855:1156  constructor(address[] memory _beneficiaries, uint256 _timeoutPeriod) payable {... */\n  mload(0x40)\n  sub(codesize, bytecodeSize)\n  dup1\n  bytecodeSize\n  dup4\n  codecopy\n  dup2\n  dup2\n  add\n  0x40\n  mstore\n  dup2\n  add\n  swap1\n  tag_1\n  swap2\n  swap1\n  tag_2\n  jump\t// in\ntag_1:\n    /* \"contracts/TransCryptoDApp/TransCryptoGen.sol\":974:975  0 */\n  0x00\n    /* \"contracts/TransCryptoDApp/TransCryptoGen.sol\":950:964  _beneficiaries */\n  dup3\n    /* \"contracts/TransCryptoDApp/TransCryptoGen.sol\":950:971  _beneficiaries.length */\n  mload\n    /* \"contracts/TransCryptoDApp/TransCryptoGen.sol\":950:975  _beneficiaries.length > 0 */\n  gt\n    /* \"contracts/TransCryptoDApp/TransCryptoGen.sol\":942:1005  require(_beneficiaries.length > 0, \"No beneficiaries provided\") */\n  tag_5\n  jumpi\n  mload(0x40)\n  0x08c379a000000000000000000000000000000000000000000000000000000000\n  dup2\n  mstore\n  0x04\n  add\n  tag_6\n  swap1\n  tag_7\n  jump\t// in\ntag_6:\n  mload(0x40)\n  dup1\n  swap2\n  sub\n  swap1\n  revert\ntag_5:\n    /* \"contracts/TransCryptoDApp/TransCryptoGen.sol\":1023:1033  msg.sender */\n  caller\n    /* \"contracts/TransCryptoDApp/TransCryptoGen.sol\":1015:1033  owner = msg.sender */\n  0xffffffffffffffffffffffffffffffffffffffff\n  and\n  0x80\n  dup2\n  0xffffffffffffffffffffffffffffffffffffffff\n  and\n  dup2\n  mstore\n  pop\n  pop\n    /* \"contracts/TransCryptoDApp/TransCryptoGen.sol\":1059:1073  _beneficiaries */\n  dup2\n    /* \"contracts/TransCryptoDApp/TransCryptoGen.sol\":1043:1056  beneficiaries */\n  0x00\n    /* \"contracts/TransCryptoDApp/TransCryptoGen.sol\":1043:1073  beneficiaries = _beneficiaries */\n  swap1\n  dup1\n  mload\n  swap1\n  0x20\n  add\n  swap1\n  tag_8\n  swap3\n  swap2\n  swap1\n  tag_9\n  jump\t// in\ntag_8:\n  pop\n    /* \"contracts/TransCryptoDApp/TransCryptoGen.sol\":1099:1113  _timeoutPeriod */\n  dup1\n    /* \"contracts/TransCryptoDApp/TransCryptoGen.sol\":1083:1096  timeoutPeriod */\n  0x02\n    /* \"contracts/TransCryptoDApp/TransCryptoGen.sol\":1083:1113  timeoutPeriod = _timeoutPeriod */\n  dup2\n  swap1\n  sstore\n  pop\n    /* \"contracts/TransCryptoDApp/TransCryptoGen.sol\":1134:1149  block.timestamp */\n  timestamp\n    /* \"contracts/TransCryptoDApp/TransCryptoGen.sol\":1123:1131  lastPing */\n  0x01\n    /* \"contracts/TransCryptoDApp/TransCryptoGen.sol\":1123:1149  lastPing = block.timestamp */\n  dup2\n  swap1\n  sstore\n  pop\n    /* \"contracts/TransCryptoDApp/TransCryptoGen.sol\":855:1156  constructor(address[] memory _beneficiaries, uint256 _timeoutPeriod) payable {... */\n  pop\n  pop\n    /* \"contracts/TransCryptoDApp/TransCryptoGen.sol\":234:2065  contract DeadManSwitchMulti {... */\n  jump(tag_10)\ntag_9:\n  dup3\n  dup1\n  sload\n  dup3\n  dup3\n  sstore\n  swap1\n  0x00\n  mstore\n  keccak256(0x00, 0x20)\n  swap1\n  dup2\n  add\n  swap3\n  dup3\n  iszero\n  tag_11\n  jumpi\n  swap2\n  0x20\n  mul\n  dup3\n  add\ntag_12:\n  dup3\n  dup2\n  gt\n  iszero\n  tag_13\n  jumpi\n  dup3\n  mload\n  dup3\n  exp(0x0100, 0x00)\n  dup2\n  sload\n  dup2\n  0xffffffffffffffffffffffffffffffffffffffff\n  mul\n  not\n  and\n  swap1\n  dup4\n  0xffffffffffffffffffffffffffffffffffffffff\n  and\n  mul\n  or\n  swap1\n  sstore\n  pop\n  swap2\n  0x20\n  add\n  swap2\n  swap1\n  0x01\n  add\n  swap1\n  jump(tag_12)\ntag_13:\ntag_11:\n  pop\n  swap1\n  pop\n  tag_14\n  swap2\n  swap1\n  tag_15\n  jump\t// in\ntag_14:\n  pop\n  swap1\n  jump\t// out\ntag_15:\ntag_16:\n  dup1\n  dup3\n  gt\n  iszero\n  tag_17\n  jumpi\n  0x00\n  dup2\n  0x00\n  swap1\n  sstore\n  pop\n  0x01\n  add\n  jump(tag_16)\ntag_17:\n  pop\n  swap1\n  jump\t// out\n    /* \"#utility.yul\":7:82   */\ntag_18:\n    /* \"#utility.yul\":40:46   */\n  0x00\n    /* \"#utility.yul\":73:75   */\n  0x40\n    /* \"#utility.yul\":67:76   */\n  mload\n    /* \"#utility.yul\":57:76   */\n  swap1\n  pop\n    /* \"#utility.yul\":7:82   */\n  swap1\n  jump\t// out\n    /* \"#utility.yul\":88:205   */\ntag_19:\n    /* \"#utility.yul\":197:198   */\n  0x00\n    /* \"#utility.yul\":194:195   */\n  dup1\n    /* \"#utility.yul\":187:199   */\n  revert\n    /* \"#utility.yul\":211:328   */\ntag_20:\n    /* \"#utility.yul\":320:321   */\n  0x00\n    /* \"#utility.yul\":317:318   */\n  dup1\n    /* \"#utility.yul\":310:322   */\n  revert\n    /* \"#utility.yul\":334:451   */\ntag_21:\n    /* \"#utility.yul\":443:444   */\n  0x00\n    /* \"#utility.yul\":440:441   */\n  dup1\n    /* \"#utility.yul\":433:445   */\n  revert\n    /* \"#utility.yul\":457:559   */\ntag_22:\n    /* \"#utility.yul\":498:504   */\n  0x00\n    /* \"#utility.yul\":549:551   */\n  0x1f\n    /* \"#utility.yul\":545:552   */\n  not\n    /* \"#utility.yul\":540:542   */\n  0x1f\n    /* \"#utility.yul\":533:538   */\n  dup4\n    /* \"#utility.yul\":529:543   */\n  add\n    /* \"#utility.yul\":525:553   */\n  and\n    /* \"#utility.yul\":515:553   */\n  swap1\n  pop\n    /* \"#utility.yul\":457:559   */\n  swap2\n  swap1\n  pop\n  jump\t// out\n    /* \"#utility.yul\":565:745   */\ntag_23:\n    /* \"#utility.yul\":613:690   */\n  0x4e487b7100000000000000000000000000000000000000000000000000000000\n    /* \"#utility.yul\":610:611   */\n  0x00\n    /* \"#utility.yul\":603:691   */\n  mstore\n    /* \"#utility.yul\":710:714   */\n  0x41\n    /* \"#utility.yul\":707:708   */\n  0x04\n    /* \"#utility.yul\":700:715   */\n  mstore\n    /* \"#utility.yul\":734:738   */\n  0x24\n    /* \"#utility.yul\":731:732   */\n  0x00\n    /* \"#utility.yul\":724:739   */\n  revert\n    /* \"#utility.yul\":751:1032   */\ntag_24:\n    /* \"#utility.yul\":834:861   */\n  tag_48\n    /* \"#utility.yul\":856:860   */\n  dup3\n    /* \"#utility.yul\":834:861   */\n  tag_22\n  jump\t// in\ntag_48:\n    /* \"#utility.yul\":826:832   */\n  dup2\n    /* \"#utility.yul\":822:862   */\n  add\n    /* \"#utility.yul\":964:970   */\n  dup2\n    /* \"#utility.yul\":952:962   */\n  dup2\n    /* \"#utility.yul\":949:971   */\n  lt\n    /* \"#utility.yul\":928:946   */\n  0xffffffffffffffff\n    /* \"#utility.yul\":916:926   */\n  dup3\n    /* \"#utility.yul\":913:947   */\n  gt\n    /* \"#utility.yul\":910:972   */\n  or\n    /* \"#utility.yul\":907:995   */\n  iszero\n  tag_49\n  jumpi\n    /* \"#utility.yul\":975:993   */\n  tag_50\n  tag_23\n  jump\t// in\ntag_50:\n    /* \"#utility.yul\":907:995   */\ntag_49:\n    /* \"#utility.yul\":1015:1025   */\n  dup1\n    /* \"#utility.yul\":1011:1013   */\n  0x40\n    /* \"#utility.yul\":1004:1026   */\n  mstore\n    /* \"#utility.yul\":794:1032   */\n  pop\n    /* \"#utility.yul\":751:1032   */\n  pop\n  pop\n  jump\t// out\n    /* \"#utility.yul\":1038:1167   */\ntag_25:\n    /* \"#utility.yul\":1072:1078   */\n  0x00\n    /* \"#utility.yul\":1099:1119   */\n  tag_52\n  tag_18\n  jump\t// in\ntag_52:\n    /* \"#utility.yul\":1089:1119   */\n  swap1\n  pop\n    /* \"#utility.yul\":1128:1161   */\n  tag_53\n    /* \"#utility.yul\":1156:1160   */\n  dup3\n    /* \"#utility.yul\":1148:1154   */\n  dup3\n    /* \"#utility.yul\":1128:1161   */\n  tag_24\n  jump\t// in\ntag_53:\n    /* \"#utility.yul\":1038:1167   */\n  swap2\n  swap1\n  pop\n  jump\t// out\n    /* \"#utility.yul\":1173:1484   */\ntag_26:\n    /* \"#utility.yul\":1250:1254   */\n  0x00\n    /* \"#utility.yul\":1340:1358   */\n  0xffffffffffffffff\n    /* \"#utility.yul\":1332:1338   */\n  dup3\n    /* \"#utility.yul\":1329:1359   */\n  gt\n    /* \"#utility.yul\":1326:1382   */\n  iszero\n  tag_55\n  jumpi\n    /* \"#utility.yul\":1362:1380   */\n  tag_56\n  tag_23\n  jump\t// in\ntag_56:\n    /* \"#utility.yul\":1326:1382   */\ntag_55:\n    /* \"#utility.yul\":1412:1416   */\n  0x20\n    /* \"#utility.yul\":1404:1410   */\n  dup3\n    /* \"#utility.yul\":1400:1417   */\n  mul\n    /* \"#utility.yul\":1392:1417   */\n  swap1\n  pop\n    /* \"#utility.yul\":1472:1476   */\n  0x20\n    /* \"#utility.yul\":1466:1470   */\n  dup2\n    /* \"#utility.yul\":1462:1477   */\n  add\n    /* \"#utility.yul\":1454:1477   */\n  swap1\n  pop\n    /* \"#utility.yul\":1173:1484   */\n  swap2\n  swap1\n  pop\n  jump\t// out\n    /* \"#utility.yul\":1490:1607   */\ntag_27:\n    /* \"#utility.yul\":1599:1600   */\n  0x00\n    /* \"#utility.yul\":1596:1597   */\n  dup1\n    /* \"#utility.yul\":1589:1601   */\n  revert\n    /* \"#utility.yul\":1613:1739   */\ntag_28:\n    /* \"#utility.yul\":1650:1657   */\n  0x00\n    /* \"#utility.yul\":1690:1732   */\n  0xffffffffffffffffffffffffffffffffffffffff\n    /* \"#utility.yul\":1683:1688   */\n  dup3\n    /* \"#utility.yul\":1679:1733   */\n  and\n    /* \"#utility.yul\":1668:1733   */\n  swap1\n  pop\n    /* \"#utility.yul\":1613:1739   */\n  swap2\n  swap1\n  pop\n  jump\t// out\n    /* \"#utility.yul\":1745:1841   */\ntag_29:\n    /* \"#utility.yul\":1782:1789   */\n  0x00\n    /* \"#utility.yul\":1811:1835   */\n  tag_60\n    /* \"#utility.yul\":1829:1834   */\n  dup3\n    /* \"#utility.yul\":1811:1835   */\n  tag_28\n  jump\t// in\ntag_60:\n    /* \"#utility.yul\":1800:1835   */\n  swap1\n  pop\n    /* \"#utility.yul\":1745:1841   */\n  swap2\n  swap1\n  pop\n  jump\t// out\n    /* \"#utility.yul\":1847:1969   */\ntag_30:\n    /* \"#utility.yul\":1920:1944   */\n  tag_62\n    /* \"#utility.yul\":1938:1943   */\n  dup2\n    /* \"#utility.yul\":1920:1944   */\n  tag_29\n  jump\t// in\ntag_62:\n    /* \"#utility.yul\":1913:1918   */\n  dup2\n    /* \"#utility.yul\":1910:1945   */\n  eq\n    /* \"#utility.yul\":1900:1963   */\n  tag_63\n  jumpi\n    /* \"#utility.yul\":1959:1960   */\n  0x00\n    /* \"#utility.yul\":1956:1957   */\n  dup1\n    /* \"#utility.yul\":1949:1961   */\n  revert\n    /* \"#utility.yul\":1900:1963   */\ntag_63:\n    /* \"#utility.yul\":1847:1969   */\n  pop\n  jump\t// out\n    /* \"#utility.yul\":1975:2118   */\ntag_31:\n    /* \"#utility.yul\":2032:2037   */\n  0x00\n    /* \"#utility.yul\":2063:2069   */\n  dup2\n    /* \"#utility.yul\":2057:2070   */\n  mload\n    /* \"#utility.yul\":2048:2070   */\n  swap1\n  pop\n    /* \"#utility.yul\":2079:2112   */\n  tag_65\n    /* \"#utility.yul\":2106:2111   */\n  dup2\n    /* \"#utility.yul\":2079:2112   */\n  tag_30\n  jump\t// in\ntag_65:\n    /* \"#utility.yul\":1975:2118   */\n  swap3\n  swap2\n  pop\n  pop\n  jump\t// out\n    /* \"#utility.yul\":2141:2873   */\ntag_32:\n    /* \"#utility.yul\":2248:2253   */\n  0x00\n    /* \"#utility.yul\":2273:2354   */\n  tag_67\n    /* \"#utility.yul\":2289:2353   */\n  tag_68\n    /* \"#utility.yul\":2346:2352   */\n  dup5\n    /* \"#utility.yul\":2289:2353   */\n  tag_26\n  jump\t// in\ntag_68:\n    /* \"#utility.yul\":2273:2354   */\n  tag_25\n  jump\t// in\ntag_67:\n    /* \"#utility.yul\":2264:2354   */\n  swap1\n  pop\n    /* \"#utility.yul\":2374:2379   */\n  dup1\n    /* \"#utility.yul\":2403:2409   */\n  dup4\n    /* \"#utility.yul\":2396:2401   */\n  dup3\n    /* \"#utility.yul\":2389:2410   */\n  mstore\n    /* \"#utility.yul\":2437:2441   */\n  0x20\n    /* \"#utility.yul\":2430:2435   */\n  dup3\n    /* \"#utility.yul\":2426:2442   */\n  add\n    /* \"#utility.yul\":2419:2442   */\n  swap1\n  pop\n    /* \"#utility.yul\":2490:2494   */\n  0x20\n    /* \"#utility.yul\":2482:2488   */\n  dup5\n    /* \"#utility.yul\":2478:2495   */\n  mul\n    /* \"#utility.yul\":2470:2476   */\n  dup4\n    /* \"#utility.yul\":2466:2496   */\n  add\n    /* \"#utility.yul\":2519:2522   */\n  dup6\n    /* \"#utility.yul\":2511:2517   */\n  dup2\n    /* \"#utility.yul\":2508:2523   */\n  gt\n    /* \"#utility.yul\":2505:2627   */\n  iszero\n  tag_69\n  jumpi\n    /* \"#utility.yul\":2538:2617   */\n  tag_70\n  tag_27\n  jump\t// in\ntag_70:\n    /* \"#utility.yul\":2505:2627   */\ntag_69:\n    /* \"#utility.yul\":2653:2659   */\n  dup4\n    /* \"#utility.yul\":2636:2867   */\ntag_71:\n    /* \"#utility.yul\":2670:2676   */\n  dup2\n    /* \"#utility.yul\":2665:2668   */\n  dup2\n    /* \"#utility.yul\":2662:2677   */\n  lt\n    /* \"#utility.yul\":2636:2867   */\n  iszero\n  tag_73\n  jumpi\n    /* \"#utility.yul\":2745:2748   */\n  dup1\n    /* \"#utility.yul\":2774:2822   */\n  tag_74\n    /* \"#utility.yul\":2818:2821   */\n  dup9\n    /* \"#utility.yul\":2806:2816   */\n  dup3\n    /* \"#utility.yul\":2774:2822   */\n  tag_31\n  jump\t// in\ntag_74:\n    /* \"#utility.yul\":2769:2772   */\n  dup5\n    /* \"#utility.yul\":2762:2823   */\n  mstore\n    /* \"#utility.yul\":2852:2856   */\n  0x20\n    /* \"#utility.yul\":2847:2850   */\n  dup5\n    /* \"#utility.yul\":2843:2857   */\n  add\n    /* \"#utility.yul\":2836:2857   */\n  swap4\n  pop\n    /* \"#utility.yul\":2712:2867   */\n  pop\n    /* \"#utility.yul\":2696:2700   */\n  0x20\n    /* \"#utility.yul\":2691:2694   */\n  dup2\n    /* \"#utility.yul\":2687:2701   */\n  add\n    /* \"#utility.yul\":2680:2701   */\n  swap1\n  pop\n    /* \"#utility.yul\":2636:2867   */\n  jump(tag_71)\ntag_73:\n    /* \"#utility.yul\":2640:2661   */\n  pop\n    /* \"#utility.yul\":2254:2873   */\n  pop\n  pop\n    /* \"#utility.yul\":2141:2873   */\n  swap4\n  swap3\n  pop\n  pop\n  pop\n  jump\t// out\n    /* \"#utility.yul\":2896:3281   */\ntag_33:\n    /* \"#utility.yul\":2978:2983   */\n  0x00\n    /* \"#utility.yul\":3027:3030   */\n  dup3\n    /* \"#utility.yul\":3020:3024   */\n  0x1f\n    /* \"#utility.yul\":3012:3018   */\n  dup4\n    /* \"#utility.yul\":3008:3025   */\n  add\n    /* \"#utility.yul\":3004:3031   */\n  slt\n    /* \"#utility.yul\":2994:3116   */\n  tag_76\n  jumpi\n    /* \"#utility.yul\":3035:3114   */\n  tag_77\n  tag_21\n  jump\t// in\ntag_77:\n    /* \"#utility.yul\":2994:3116   */\ntag_76:\n    /* \"#utility.yul\":3145:3151   */\n  dup2\n    /* \"#utility.yul\":3139:3152   */\n  mload\n    /* \"#utility.yul\":3170:3275   */\n  tag_78\n    /* \"#utility.yul\":3271:3274   */\n  dup5\n    /* \"#utility.yul\":3263:3269   */\n  dup3\n    /* \"#utility.yul\":3256:3260   */\n  0x20\n    /* \"#utility.yul\":3248:3254   */\n  dup7\n    /* \"#utility.yul\":3244:3261   */\n  add\n    /* \"#utility.yul\":3170:3275   */\n  tag_32\n  jump\t// in\ntag_78:\n    /* \"#utility.yul\":3161:3275   */\n  swap2\n  pop\n    /* \"#utility.yul\":2984:3281   */\n  pop\n    /* \"#utility.yul\":2896:3281   */\n  swap3\n  swap2\n  pop\n  pop\n  jump\t// out\n    /* \"#utility.yul\":3287:3364   */\ntag_34:\n    /* \"#utility.yul\":3324:3331   */\n  0x00\n    /* \"#utility.yul\":3353:3358   */\n  dup2\n    /* \"#utility.yul\":3342:3358   */\n  swap1\n  pop\n    /* \"#utility.yul\":3287:3364   */\n  swap2\n  swap1\n  pop\n  jump\t// out\n    /* \"#utility.yul\":3370:3492   */\ntag_35:\n    /* \"#utility.yul\":3443:3467   */\n  tag_81\n    /* \"#utility.yul\":3461:3466   */\n  dup2\n    /* \"#utility.yul\":3443:3467   */\n  tag_34\n  jump\t// in\ntag_81:\n    /* \"#utility.yul\":3436:3441   */\n  dup2\n    /* \"#utility.yul\":3433:3468   */\n  eq\n    /* \"#utility.yul\":3423:3486   */\n  tag_82\n  jumpi\n    /* \"#utility.yul\":3482:3483   */\n  0x00\n    /* \"#utility.yul\":3479:3480   */\n  dup1\n    /* \"#utility.yul\":3472:3484   */\n  revert\n    /* \"#utility.yul\":3423:3486   */\ntag_82:\n    /* \"#utility.yul\":3370:3492   */\n  pop\n  jump\t// out\n    /* \"#utility.yul\":3498:3641   */\ntag_36:\n    /* \"#utility.yul\":3555:3560   */\n  0x00\n    /* \"#utility.yul\":3586:3592   */\n  dup2\n    /* \"#utility.yul\":3580:3593   */\n  mload\n    /* \"#utility.yul\":3571:3593   */\n  swap1\n  pop\n    /* \"#utility.yul\":3602:3635   */\n  tag_84\n    /* \"#utility.yul\":3629:3634   */\n  dup2\n    /* \"#utility.yul\":3602:3635   */\n  tag_35\n  jump\t// in\ntag_84:\n    /* \"#utility.yul\":3498:3641   */\n  swap3\n  swap2\n  pop\n  pop\n  jump\t// out\n    /* \"#utility.yul\":3647:4357   */\ntag_2:\n    /* \"#utility.yul\":3751:3757   */\n  0x00\n    /* \"#utility.yul\":3759:3765   */\n  dup1\n    /* \"#utility.yul\":3808:3810   */\n  0x40\n    /* \"#utility.yul\":3796:3805   */\n  dup4\n    /* \"#utility.yul\":3787:3794   */\n  dup6\n    /* \"#utility.yul\":3783:3806   */\n  sub\n    /* \"#utility.yul\":3779:3811   */\n  slt\n    /* \"#utility.yul\":3776:3895   */\n  iszero\n  tag_86\n  jumpi\n    /* \"#utility.yul\":3814:3893   */\n  tag_87\n  tag_19\n  jump\t// in\ntag_87:\n    /* \"#utility.yul\":3776:3895   */\ntag_86:\n    /* \"#utility.yul\":3955:3956   */\n  0x00\n    /* \"#utility.yul\":3944:3953   */\n  dup4\n    /* \"#utility.yul\":3940:3957   */\n  add\n    /* \"#utility.yul\":3934:3958   */\n  mload\n    /* \"#utility.yul\":3985:4003   */\n  0xffffffffffffffff\n    /* \"#utility.yul\":3977:3983   */\n  dup2\n    /* \"#utility.yul\":3974:4004   */\n  gt\n    /* \"#utility.yul\":3971:4088   */\n  iszero\n  tag_88\n  jumpi\n    /* \"#utility.yul\":4007:4086   */\n  tag_89\n  tag_20\n  jump\t// in\ntag_89:\n    /* \"#utility.yul\":3971:4088   */\ntag_88:\n    /* \"#utility.yul\":4112:4201   */\n  tag_90\n    /* \"#utility.yul\":4193:4200   */\n  dup6\n    /* \"#utility.yul\":4184:4190   */\n  dup3\n    /* \"#utility.yul\":4173:4182   */\n  dup7\n    /* \"#utility.yul\":4169:4191   */\n  add\n    /* \"#utility.yul\":4112:4201   */\n  tag_33\n  jump\t// in\ntag_90:\n    /* \"#utility.yul\":4102:4201   */\n  swap3\n  pop\n    /* \"#utility.yul\":3905:4211   */\n  pop\n    /* \"#utility.yul\":4250:4252   */\n  0x20\n    /* \"#utility.yul\":4276:4340   */\n  tag_91\n    /* \"#utility.yul\":4332:4339   */\n  dup6\n    /* \"#utility.yul\":4323:4329   */\n  dup3\n    /* \"#utility.yul\":4312:4321   */\n  dup7\n    /* \"#utility.yul\":4308:4330   */\n  add\n    /* \"#utility.yul\":4276:4340   */\n  tag_36\n  jump\t// in\ntag_91:\n    /* \"#utility.yul\":4266:4340   */\n  swap2\n  pop\n    /* \"#utility.yul\":4221:4350   */\n  pop\n    /* \"#utility.yul\":3647:4357   */\n  swap3\n  pop\n  swap3\n  swap1\n  pop\n  jump\t// out\n    /* \"#utility.yul\":4363:4532   */\ntag_37:\n    /* \"#utility.yul\":4447:4458   */\n  0x00\n    /* \"#utility.yul\":4481:4487   */\n  dup3\n    /* \"#utility.yul\":4476:4479   */\n  dup3\n    /* \"#utility.yul\":4469:4488   */\n  mstore\n    /* \"#utility.yul\":4521:4525   */\n  0x20\n    /* \"#utility.yul\":4516:4519   */\n  dup3\n    /* \"#utility.yul\":4512:4526   */\n  add\n    /* \"#utility.yul\":4497:4526   */\n  swap1\n  pop\n    /* \"#utility.yul\":4363:4532   */\n  swap3\n  swap2\n  pop\n  pop\n  jump\t// out\n    /* \"#utility.yul\":4538:4713   */\ntag_38:\n    /* \"#utility.yul\":4678:4705   */\n  0x4e6f2062656e656669636961726965732070726f766964656400000000000000\n    /* \"#utility.yul\":4674:4675   */\n  0x00\n    /* \"#utility.yul\":4666:4672   */\n  dup3\n    /* \"#utility.yul\":4662:4676   */\n  add\n    /* \"#utility.yul\":4655:4706   */\n  mstore\n    /* \"#utility.yul\":4538:4713   */\n  pop\n  jump\t// out\n    /* \"#utility.yul\":4719:5085   */\ntag_39:\n    /* \"#utility.yul\":4861:4864   */\n  0x00\n    /* \"#utility.yul\":4882:4949   */\n  tag_95\n    /* \"#utility.yul\":4946:4948   */\n  0x19\n    /* \"#utility.yul\":4941:4944   */\n  dup4\n    /* \"#utility.yul\":4882:4949   */\n  tag_37\n  jump\t// in\ntag_95:\n    /* \"#utility.yul\":4875:4949   */\n  swap2\n  pop\n    /* \"#utility.yul\":4958:5051   */\n  tag_96\n    /* \"#utility.yul\":5047:5050   */\n  dup3\n    /* \"#utility.yul\":4958:5051   */\n  tag_38\n  jump\t// in\ntag_96:\n    /* \"#utility.yul\":5076:5078   */\n  0x20\n    /* \"#utility.yul\":5071:5074   */\n  dup3\n    /* \"#utility.yul\":5067:5079   */\n  add\n    /* \"#utility.yul\":5060:5079   */\n  swap1\n  pop\n    /* \"#utility.yul\":4719:5085   */\n  swap2\n  swap1\n  pop\n  jump\t// out\n    /* \"#utility.yul\":5091:5510   */\ntag_7:\n    /* \"#utility.yul\":5257:5261   */\n  0x00\n    /* \"#utility.yul\":5295:5297   */\n  0x20\n    /* \"#utility.yul\":5284:5293   */\n  dup3\n    /* \"#utility.yul\":5280:5298   */\n  add\n    /* \"#utility.yul\":5272:5298   */\n  swap1\n  pop\n    /* \"#utility.yul\":5344:5353   */\n  dup2\n    /* \"#utility.yul\":5338:5342   */\n  dup2\n    /* \"#utility.yul\":5334:5354   */\n  sub\n    /* \"#utility.yul\":5330:5331   */\n  0x00\n    /* \"#utility.yul\":5319:5328   */\n  dup4\n    /* \"#utility.yul\":5315:5332   */\n  add\n    /* \"#utility.yul\":5308:5355   */\n  mstore\n    /* \"#utility.yul\":5372:5503   */\n  tag_98\n    /* \"#utility.yul\":5498:5502   */\n  dup2\n    /* \"#utility.yul\":5372:5503   */\n  tag_39\n  jump\t// in\ntag_98:\n    /* \"#utility.yul\":5364:5503   */\n  swap1\n  pop\n    /* \"#utility.yul\":5091:5510   */\n  swap2\n  swap1\n  pop\n  jump\t// out\n    /* \"contracts/TransCryptoDApp/TransCryptoGen.sol\":234:2065  contract DeadManSwitchMulti {... */\ntag_10:\n  mload(0x80)\n  codecopy(0x00, dataOffset(sub_0), dataSize(sub_0))\n  0x00\n  assignImmutable(\"0x13600b294191fc92924bb3ce4b969c1e7e2bab8f4c93c3fc6d0a51733df3c060\")\n  return(0x00, dataSize(sub_0))\nstop\n\nsub_0: assembly {\n        /* \"contracts/TransCryptoDApp/TransCryptoGen.sol\":234:2065  contract DeadManSwitchMulti {... */\n      mstore(0x40, 0x80)\n      jumpi(tag_1, lt(calldatasize, 0x04))\n      shr(0xe0, calldataload(0x00))\n      dup1\n      0x2760c57e\n      eq\n      tag_3\n      jumpi\n      dup1\n      0x5c36b186\n      eq\n      tag_4\n      jumpi\n      dup1\n      0x6cea6b82\n      eq\n      tag_5\n      jumpi\n      dup1\n      0x8da5cb5b\n      eq\n      tag_6\n      jumpi\n      dup1\n      0xac307773\n      eq\n      tag_7\n      jumpi\n      dup1\n      0xefeb5e58\n      eq\n      tag_8\n      jumpi\n      jump(tag_2)\n    tag_1:\n      jumpi(tag_2, calldatasize)\n      stop\n    tag_2:\n      0x00\n      dup1\n      revert\n        /* \"contracts/TransCryptoDApp/TransCryptoGen.sol\":340:363  uint256 public lastPing */\n    tag_3:\n      callvalue\n      dup1\n      iszero\n      tag_11\n      jumpi\n      0x00\n      dup1\n      revert\n    tag_11:\n      pop\n      tag_12\n      tag_13\n      jump\t// in\n    tag_12:\n      mload(0x40)\n      tag_14\n      swap2\n      swap1\n      tag_15\n      jump\t// in\n    tag_14:\n      mload(0x40)\n      dup1\n      swap2\n      sub\n      swap1\n      return\n        /* \"contracts/TransCryptoDApp/TransCryptoGen.sol\":1228:1407  function ping() external {... */\n    tag_4:\n      callvalue\n      dup1\n      iszero\n      tag_16\n      jumpi\n      0x00\n      dup1\n      revert\n    tag_16:\n      pop\n      tag_17\n      tag_18\n      jump\t// in\n    tag_17:\n      stop\n        /* \"contracts/TransCryptoDApp/TransCryptoGen.sol\":369:397  uint256 public timeoutPeriod */\n    tag_5:\n      callvalue\n      dup1\n      iszero\n      tag_19\n      jumpi\n      0x00\n      dup1\n      revert\n    tag_19:\n      pop\n      tag_20\n      tag_21\n      jump\t// in\n    tag_20:\n      mload(0x40)\n      tag_22\n      swap2\n      swap1\n      tag_15\n      jump\t// in\n    tag_22:\n      mload(0x40)\n      dup1\n      swap2\n      sub\n      swap1\n      return\n        /* \"contracts/TransCryptoDApp/TransCryptoGen.sol\":268:298  address public immutable owner */\n    tag_6:\n      callvalue\n      dup1\n      iszero\n      tag_23\n      jumpi\n      0x00\n      dup1\n      revert\n    tag_23:\n      pop\n      tag_24\n      tag_25\n      jump\t// in\n    tag_24:\n      mload(0x40)\n      tag_26\n      swap2\n      swap1\n      tag_27\n      jump\t// in\n    tag_26:\n      mload(0x40)\n      dup1\n      swap2\n      sub\n      swap1\n      return\n        /* \"contracts/TransCryptoDApp/TransCryptoGen.sol\":1504:1968  function claimFunds() external {... */\n    tag_7:\n      callvalue\n      dup1\n      iszero\n      tag_28\n      jumpi\n      0x00\n      dup1\n      revert\n    tag_28:\n      pop\n      tag_29\n      tag_30\n      jump\t// in\n    tag_29:\n      stop\n        /* \"contracts/TransCryptoDApp/TransCryptoGen.sol\":304:334  address[] public beneficiaries */\n    tag_8:\n      callvalue\n      dup1\n      iszero\n      tag_31\n      jumpi\n      0x00\n      dup1\n      revert\n    tag_31:\n      pop\n      tag_32\n      0x04\n      dup1\n      calldatasize\n      sub\n      dup2\n      add\n      swap1\n      tag_33\n      swap2\n      swap1\n      tag_34\n      jump\t// in\n    tag_33:\n      tag_35\n      jump\t// in\n    tag_32:\n      mload(0x40)\n      tag_36\n      swap2\n      swap1\n      tag_27\n      jump\t// in\n    tag_36:\n      mload(0x40)\n      dup1\n      swap2\n      sub\n      swap1\n      return\n        /* \"contracts/TransCryptoDApp/TransCryptoGen.sol\":340:363  uint256 public lastPing */\n    tag_13:\n      sload(0x01)\n      dup2\n      jump\t// out\n        /* \"contracts/TransCryptoDApp/TransCryptoGen.sol\":1228:1407  function ping() external {... */\n    tag_18:\n        /* \"contracts/TransCryptoDApp/TransCryptoGen.sol\":1285:1290  owner */\n      immutable(\"0x13600b294191fc92924bb3ce4b969c1e7e2bab8f4c93c3fc6d0a51733df3c060\")\n        /* \"contracts/TransCryptoDApp/TransCryptoGen.sol\":1271:1290  msg.sender == owner */\n      0xffffffffffffffffffffffffffffffffffffffff\n      and\n        /* \"contracts/TransCryptoDApp/TransCryptoGen.sol\":1271:1281  msg.sender */\n      caller\n        /* \"contracts/TransCryptoDApp/TransCryptoGen.sol\":1271:1290  msg.sender == owner */\n      0xffffffffffffffffffffffffffffffffffffffff\n      and\n      eq\n        /* \"contracts/TransCryptoDApp/TransCryptoGen.sol\":1263:1314  require(msg.sender == owner, \"Only owner can ping\") */\n      tag_38\n      jumpi\n      mload(0x40)\n      0x08c379a000000000000000000000000000000000000000000000000000000000\n      dup2\n      mstore\n      0x04\n      add\n      tag_39\n      swap1\n      tag_40\n      jump\t// in\n    tag_39:\n      mload(0x40)\n      dup1\n      swap2\n      sub\n      swap1\n      revert\n    tag_38:\n        /* \"contracts/TransCryptoDApp/TransCryptoGen.sol\":1335:1350  block.timestamp */\n      timestamp\n        /* \"contracts/TransCryptoDApp/TransCryptoGen.sol\":1324:1332  lastPing */\n      0x01\n        /* \"contracts/TransCryptoDApp/TransCryptoGen.sol\":1324:1350  lastPing = block.timestamp */\n      dup2\n      swap1\n      sstore\n      pop\n        /* \"contracts/TransCryptoDApp/TransCryptoGen.sol\":1372:1382  msg.sender */\n      caller\n        /* \"contracts/TransCryptoDApp/TransCryptoGen.sol\":1365:1400  Pinged(msg.sender, block.timestamp) */\n      0xffffffffffffffffffffffffffffffffffffffff\n      and\n      0x78a327424158f99dcde9deeb550e97c0f1d53b23ebaec3ac54a53f58504b3c85\n        /* \"contracts/TransCryptoDApp/TransCryptoGen.sol\":1384:1399  block.timestamp */\n      timestamp\n        /* \"contracts/TransCryptoDApp/TransCryptoGen.sol\":1365:1400  Pinged(msg.sender, block.timestamp) */\n      mload(0x40)\n      tag_41\n      swap2\n      swap1\n      tag_15\n      jump\t// in\n    tag_41:\n      mload(0x40)\n      dup1\n      swap2\n      sub\n      swap1\n      log2\n        /* \"contracts/TransCryptoDApp/TransCryptoGen.sol\":1228:1407  function ping() external {... */\n      jump\t// out\n        /* \"contracts/TransCryptoDApp/TransCryptoGen.sol\":369:397  uint256 public timeoutPeriod */\n    tag_21:\n      sload(0x02)\n      dup2\n      jump\t// out\n        /* \"contracts/TransCryptoDApp/TransCryptoGen.sol\":268:298  address public immutable owner */\n    tag_25:\n      immutable(\"0x13600b294191fc92924bb3ce4b969c1e7e2bab8f4c93c3fc6d0a51733df3c060\")\n      dup2\n      jump\t// out\n        /* \"contracts/TransCryptoDApp/TransCryptoGen.sol\":1504:1968  function claimFunds() external {... */\n    tag_30:\n        /* \"contracts/TransCryptoDApp/TransCryptoGen.sol\":1582:1595  timeoutPeriod */\n      sload(0x02)\n        /* \"contracts/TransCryptoDApp/TransCryptoGen.sol\":1571:1579  lastPing */\n      sload(0x01)\n        /* \"contracts/TransCryptoDApp/TransCryptoGen.sol\":1571:1595  lastPing + timeoutPeriod */\n      tag_43\n      swap2\n      swap1\n      tag_44\n      jump\t// in\n    tag_43:\n        /* \"contracts/TransCryptoDApp/TransCryptoGen.sol\":1553:1568  block.timestamp */\n      timestamp\n        /* \"contracts/TransCryptoDApp/TransCryptoGen.sol\":1553:1595  block.timestamp > lastPing + timeoutPeriod */\n      gt\n        /* \"contracts/TransCryptoDApp/TransCryptoGen.sol\":1545:1618  require(block.timestamp > lastPing + timeoutPeriod, \"Owner still active\") */\n      tag_45\n      jumpi\n      mload(0x40)\n      0x08c379a000000000000000000000000000000000000000000000000000000000\n      dup2\n      mstore\n      0x04\n      add\n      tag_46\n      swap1\n      tag_47\n      jump\t// in\n    tag_46:\n      mload(0x40)\n      dup1\n      swap2\n      sub\n      swap1\n      revert\n    tag_45:\n        /* \"contracts/TransCryptoDApp/TransCryptoGen.sol\":1628:1641  uint256 share */\n      0x00\n        /* \"contracts/TransCryptoDApp/TransCryptoGen.sol\":1668:1681  beneficiaries */\n      dup1\n        /* \"contracts/TransCryptoDApp/TransCryptoGen.sol\":1668:1688  beneficiaries.length */\n      dup1\n      sload\n      swap1\n      pop\n        /* \"contracts/TransCryptoDApp/TransCryptoGen.sol\":1644:1665  address(this).balance */\n      selfbalance\n        /* \"contracts/TransCryptoDApp/TransCryptoGen.sol\":1644:1688  address(this).balance / beneficiaries.length */\n      tag_48\n      swap2\n      swap1\n      tag_49\n      jump\t// in\n    tag_48:\n        /* \"contracts/TransCryptoDApp/TransCryptoGen.sol\":1628:1688  uint256 share = address(this).balance / beneficiaries.length */\n      swap1\n      pop\n        /* \"contracts/TransCryptoDApp/TransCryptoGen.sol\":1704:1713  uint256 i */\n      0x00\n        /* \"contracts/TransCryptoDApp/TransCryptoGen.sol\":1699:1816  for (uint256 i = 0; i < beneficiaries.length; ++i) {... */\n    tag_50:\n        /* \"contracts/TransCryptoDApp/TransCryptoGen.sol\":1723:1736  beneficiaries */\n      0x00\n        /* \"contracts/TransCryptoDApp/TransCryptoGen.sol\":1723:1743  beneficiaries.length */\n      dup1\n      sload\n      swap1\n      pop\n        /* \"contracts/TransCryptoDApp/TransCryptoGen.sol\":1719:1720  i */\n      dup2\n        /* \"contracts/TransCryptoDApp/TransCryptoGen.sol\":1719:1743  i < beneficiaries.length */\n      lt\n        /* \"contracts/TransCryptoDApp/TransCryptoGen.sol\":1699:1816  for (uint256 i = 0; i < beneficiaries.length; ++i) {... */\n      iszero\n      tag_51\n      jumpi\n        /* \"contracts/TransCryptoDApp/TransCryptoGen.sol\":1772:1785  beneficiaries */\n      0x00\n        /* \"contracts/TransCryptoDApp/TransCryptoGen.sol\":1786:1787  i */\n      dup2\n        /* \"contracts/TransCryptoDApp/TransCryptoGen.sol\":1772:1788  beneficiaries[i] */\n      dup2\n      sload\n      dup2\n      lt\n      tag_53\n      jumpi\n      tag_54\n      tag_55\n      jump\t// in\n    tag_54:\n    tag_53:\n      swap1\n      0x00\n      mstore\n      keccak256(0x00, 0x20)\n      add\n      0x00\n      swap1\n      sload\n      swap1\n      0x0100\n      exp\n      swap1\n      div\n      0xffffffffffffffffffffffffffffffffffffffff\n      and\n        /* \"contracts/TransCryptoDApp/TransCryptoGen.sol\":1764:1798  payable(beneficiaries[i]).transfer */\n      0xffffffffffffffffffffffffffffffffffffffff\n      and\n        /* \"contracts/TransCryptoDApp/TransCryptoGen.sol\":1764:1805  payable(beneficiaries[i]).transfer(share) */\n      0x08fc\n        /* \"contracts/TransCryptoDApp/TransCryptoGen.sol\":1799:1804  share */\n      dup4\n        /* \"contracts/TransCryptoDApp/TransCryptoGen.sol\":1764:1805  payable(beneficiaries[i]).transfer(share) */\n      swap1\n      dup2\n      iszero\n      mul\n      swap1\n      mload(0x40)\n      0x00\n      mload(0x40)\n      dup1\n      dup4\n      sub\n      dup2\n      dup6\n      dup9\n      dup9\n      call\n      swap4\n      pop\n      pop\n      pop\n      pop\n      iszero\n      dup1\n      iszero\n      tag_58\n      jumpi\n      returndatasize\n      0x00\n      dup1\n      returndatacopy\n      revert(0x00, returndatasize)\n    tag_58:\n      pop\n        /* \"contracts/TransCryptoDApp/TransCryptoGen.sol\":1745:1748  ++i */\n      dup1\n      0x01\n      add\n      swap1\n      pop\n        /* \"contracts/TransCryptoDApp/TransCryptoGen.sol\":1699:1816  for (uint256 i = 0; i < beneficiaries.length; ++i) {... */\n      jump(tag_50)\n    tag_51:\n      pop\n        /* \"contracts/TransCryptoDApp/TransCryptoGen.sol\":1839:1849  msg.sender */\n      caller\n        /* \"contracts/TransCryptoDApp/TransCryptoGen.sol\":1831:1890  Claimed(msg.sender, address(this).balance, block.timestamp) */\n      0xffffffffffffffffffffffffffffffffffffffff\n      and\n      0x987d620f307ff6b94d58743cb7a7509f24071586a77759b77c2d4e29f75a2f9a\n        /* \"contracts/TransCryptoDApp/TransCryptoGen.sol\":1851:1872  address(this).balance */\n      selfbalance\n        /* \"contracts/TransCryptoDApp/TransCryptoGen.sol\":1874:1889  block.timestamp */\n      timestamp\n        /* \"contracts/TransCryptoDApp/TransCryptoGen.sol\":1831:1890  Claimed(msg.sender, address(this).balance, block.timestamp) */\n      mload(0x40)\n      tag_59\n      swap3\n      swap2\n      swap1\n      tag_60\n      jump\t// in\n    tag_59:\n      mload(0x40)\n      dup1\n      swap2\n      sub\n      swap1\n      log2\n        /* \"contracts/TransCryptoDApp/TransCryptoGen.sol\":1921:1931  msg.sender */\n      caller\n        /* \"contracts/TransCryptoDApp/TransCryptoGen.sol\":1900:1933  selfdestruct(payable(msg.sender)) */\n      0xffffffffffffffffffffffffffffffffffffffff\n      and\n      selfdestruct\n        /* \"contracts/TransCryptoDApp/TransCryptoGen.sol\":304:334  address[] public beneficiaries */\n    tag_35:\n      0x00\n      dup2\n      dup2\n      sload\n      dup2\n      lt\n      tag_61\n      jumpi\n      0x00\n      dup1\n      revert\n    tag_61:\n      swap1\n      0x00\n      mstore\n      keccak256(0x00, 0x20)\n      add\n      0x00\n      swap2\n      pop\n      sload\n      swap1\n      0x0100\n      exp\n      swap1\n      div\n      0xffffffffffffffffffffffffffffffffffffffff\n      and\n      dup2\n      jump\t// out\n        /* \"#utility.yul\":7:84   */\n    tag_63:\n        /* \"#utility.yul\":44:51   */\n      0x00\n        /* \"#utility.yul\":73:78   */\n      dup2\n        /* \"#utility.yul\":62:78   */\n      swap1\n      pop\n        /* \"#utility.yul\":7:84   */\n      swap2\n      swap1\n      pop\n      jump\t// out\n        /* \"#utility.yul\":90:208   */\n    tag_64:\n        /* \"#utility.yul\":177:201   */\n      tag_83\n        /* \"#utility.yul\":195:200   */\n      dup2\n        /* \"#utility.yul\":177:201   */\n      tag_63\n      jump\t// in\n    tag_83:\n        /* \"#utility.yul\":172:175   */\n      dup3\n        /* \"#utility.yul\":165:202   */\n      mstore\n        /* \"#utility.yul\":90:208   */\n      pop\n      pop\n      jump\t// out\n        /* \"#utility.yul\":214:436   */\n    tag_15:\n        /* \"#utility.yul\":307:311   */\n      0x00\n        /* \"#utility.yul\":345:347   */\n      0x20\n        /* \"#utility.yul\":334:343   */\n      dup3\n        /* \"#utility.yul\":330:348   */\n      add\n        /* \"#utility.yul\":322:348   */\n      swap1\n      pop\n        /* \"#utility.yul\":358:429   */\n      tag_85\n        /* \"#utility.yul\":426:427   */\n      0x00\n        /* \"#utility.yul\":415:424   */\n      dup4\n        /* \"#utility.yul\":411:428   */\n      add\n        /* \"#utility.yul\":402:408   */\n      dup5\n        /* \"#utility.yul\":358:429   */\n      tag_64\n      jump\t// in\n    tag_85:\n        /* \"#utility.yul\":214:436   */\n      swap3\n      swap2\n      pop\n      pop\n      jump\t// out\n        /* \"#utility.yul\":442:568   */\n    tag_65:\n        /* \"#utility.yul\":479:486   */\n      0x00\n        /* \"#utility.yul\":519:561   */\n      0xffffffffffffffffffffffffffffffffffffffff\n        /* \"#utility.yul\":512:517   */\n      dup3\n        /* \"#utility.yul\":508:562   */\n      and\n        /* \"#utility.yul\":497:562   */\n      swap1\n      pop\n        /* \"#utility.yul\":442:568   */\n      swap2\n      swap1\n      pop\n      jump\t// out\n        /* \"#utility.yul\":574:670   */\n    tag_66:\n        /* \"#utility.yul\":611:618   */\n      0x00\n        /* \"#utility.yul\":640:664   */\n      tag_88\n        /* \"#utility.yul\":658:663   */\n      dup3\n        /* \"#utility.yul\":640:664   */\n      tag_65\n      jump\t// in\n    tag_88:\n        /* \"#utility.yul\":629:664   */\n      swap1\n      pop\n        /* \"#utility.yul\":574:670   */\n      swap2\n      swap1\n      pop\n      jump\t// out\n        /* \"#utility.yul\":676:794   */\n    tag_67:\n        /* \"#utility.yul\":763:787   */\n      tag_90\n        /* \"#utility.yul\":781:786   */\n      dup2\n        /* \"#utility.yul\":763:787   */\n      tag_66\n      jump\t// in\n    tag_90:\n        /* \"#utility.yul\":758:761   */\n      dup3\n        /* \"#utility.yul\":751:788   */\n      mstore\n        /* \"#utility.yul\":676:794   */\n      pop\n      pop\n      jump\t// out\n        /* \"#utility.yul\":800:1022   */\n    tag_27:\n        /* \"#utility.yul\":893:897   */\n      0x00\n        /* \"#utility.yul\":931:933   */\n      0x20\n        /* \"#utility.yul\":920:929   */\n      dup3\n        /* \"#utility.yul\":916:934   */\n      add\n        /* \"#utility.yul\":908:934   */\n      swap1\n      pop\n        /* \"#utility.yul\":944:1015   */\n      tag_92\n        /* \"#utility.yul\":1012:1013   */\n      0x00\n        /* \"#utility.yul\":1001:1010   */\n      dup4\n        /* \"#utility.yul\":997:1014   */\n      add\n        /* \"#utility.yul\":988:994   */\n      dup5\n        /* \"#utility.yul\":944:1015   */\n      tag_67\n      jump\t// in\n    tag_92:\n        /* \"#utility.yul\":800:1022   */\n      swap3\n      swap2\n      pop\n      pop\n      jump\t// out\n        /* \"#utility.yul\":1109:1226   */\n    tag_69:\n        /* \"#utility.yul\":1218:1219   */\n      0x00\n        /* \"#utility.yul\":1215:1216   */\n      dup1\n        /* \"#utility.yul\":1208:1220   */\n      revert\n        /* \"#utility.yul\":1355:1477   */\n    tag_71:\n        /* \"#utility.yul\":1428:1452   */\n      tag_97\n        /* \"#utility.yul\":1446:1451   */\n      dup2\n        /* \"#utility.yul\":1428:1452   */\n      tag_63\n      jump\t// in\n    tag_97:\n        /* \"#utility.yul\":1421:1426   */\n      dup2\n        /* \"#utility.yul\":1418:1453   */\n      eq\n        /* \"#utility.yul\":1408:1471   */\n      tag_98\n      jumpi\n        /* \"#utility.yul\":1467:1468   */\n      0x00\n        /* \"#utility.yul\":1464:1465   */\n      dup1\n        /* \"#utility.yul\":1457:1469   */\n      revert\n        /* \"#utility.yul\":1408:1471   */\n    tag_98:\n        /* \"#utility.yul\":1355:1477   */\n      pop\n      jump\t// out\n        /* \"#utility.yul\":1483:1622   */\n    tag_72:\n        /* \"#utility.yul\":1529:1534   */\n      0x00\n        /* \"#utility.yul\":1567:1573   */\n      dup2\n        /* \"#utility.yul\":1554:1574   */\n      calldataload\n        /* \"#utility.yul\":1545:1574   */\n      swap1\n      pop\n        /* \"#utility.yul\":1583:1616   */\n      tag_100\n        /* \"#utility.yul\":1610:1615   */\n      dup2\n        /* \"#utility.yul\":1583:1616   */\n      tag_71\n      jump\t// in\n    tag_100:\n        /* \"#utility.yul\":1483:1622   */\n      swap3\n      swap2\n      pop\n      pop\n      jump\t// out\n        /* \"#utility.yul\":1628:1957   */\n    tag_34:\n        /* \"#utility.yul\":1687:1693   */\n      0x00\n        /* \"#utility.yul\":1736:1738   */\n      0x20\n        /* \"#utility.yul\":1724:1733   */\n      dup3\n        /* \"#utility.yul\":1715:1722   */\n      dup5\n        /* \"#utility.yul\":1711:1734   */\n      sub\n        /* \"#utility.yul\":1707:1739   */\n      slt\n        /* \"#utility.yul\":1704:1823   */\n      iszero\n      tag_102\n      jumpi\n        /* \"#utility.yul\":1742:1821   */\n      tag_103\n      tag_69\n      jump\t// in\n    tag_103:\n        /* \"#utility.yul\":1704:1823   */\n    tag_102:\n        /* \"#utility.yul\":1862:1863   */\n      0x00\n        /* \"#utility.yul\":1887:1940   */\n      tag_104\n        /* \"#utility.yul\":1932:1939   */\n      dup5\n        /* \"#utility.yul\":1923:1929   */\n      dup3\n        /* \"#utility.yul\":1912:1921   */\n      dup6\n        /* \"#utility.yul\":1908:1930   */\n      add\n        /* \"#utility.yul\":1887:1940   */\n      tag_72\n      jump\t// in\n    tag_104:\n        /* \"#utility.yul\":1877:1940   */\n      swap2\n      pop\n        /* \"#utility.yul\":1833:1950   */\n      pop\n        /* \"#utility.yul\":1628:1957   */\n      swap3\n      swap2\n      pop\n      pop\n      jump\t// out\n        /* \"#utility.yul\":1963:2132   */\n    tag_73:\n        /* \"#utility.yul\":2047:2058   */\n      0x00\n        /* \"#utility.yul\":2081:2087   */\n      dup3\n        /* \"#utility.yul\":2076:2079   */\n      dup3\n        /* \"#utility.yul\":2069:2088   */\n      mstore\n        /* \"#utility.yul\":2121:2125   */\n      0x20\n        /* \"#utility.yul\":2116:2119   */\n      dup3\n        /* \"#utility.yul\":2112:2126   */\n      add\n        /* \"#utility.yul\":2097:2126   */\n      swap1\n      pop\n        /* \"#utility.yul\":1963:2132   */\n      swap3\n      swap2\n      pop\n      pop\n      jump\t// out\n        /* \"#utility.yul\":2138:2307   */\n    tag_74:\n        /* \"#utility.yul\":2278:2299   */\n      0x4f6e6c79206f776e65722063616e2070696e6700000000000000000000000000\n        /* \"#utility.yul\":2274:2275   */\n      0x00\n        /* \"#utility.yul\":2266:2272   */\n      dup3\n        /* \"#utility.yul\":2262:2276   */\n      add\n        /* \"#utility.yul\":2255:2300   */\n      mstore\n        /* \"#utility.yul\":2138:2307   */\n      pop\n      jump\t// out\n        /* \"#utility.yul\":2313:2679   */\n    tag_75:\n        /* \"#utility.yul\":2455:2458   */\n      0x00\n        /* \"#utility.yul\":2476:2543   */\n      tag_108\n        /* \"#utility.yul\":2540:2542   */\n      0x13\n        /* \"#utility.yul\":2535:2538   */\n      dup4\n        /* \"#utility.yul\":2476:2543   */\n      tag_73\n      jump\t// in\n    tag_108:\n        /* \"#utility.yul\":2469:2543   */\n      swap2\n      pop\n        /* \"#utility.yul\":2552:2645   */\n      tag_109\n        /* \"#utility.yul\":2641:2644   */\n      dup3\n        /* \"#utility.yul\":2552:2645   */\n      tag_74\n      jump\t// in\n    tag_109:\n        /* \"#utility.yul\":2670:2672   */\n      0x20\n        /* \"#utility.yul\":2665:2668   */\n      dup3\n        /* \"#utility.yul\":2661:2673   */\n      add\n        /* \"#utility.yul\":2654:2673   */\n      swap1\n      pop\n        /* \"#utility.yul\":2313:2679   */\n      swap2\n      swap1\n      pop\n      jump\t// out\n        /* \"#utility.yul\":2685:3104   */\n    tag_40:\n        /* \"#utility.yul\":2851:2855   */\n      0x00\n        /* \"#utility.yul\":2889:2891   */\n      0x20\n        /* \"#utility.yul\":2878:2887   */\n      dup3\n        /* \"#utility.yul\":2874:2892   */\n      add\n        /* \"#utility.yul\":2866:2892   */\n      swap1\n      pop\n        /* \"#utility.yul\":2938:2947   */\n      dup2\n        /* \"#utility.yul\":2932:2936   */\n      dup2\n        /* \"#utility.yul\":2928:2948   */\n      sub\n        /* \"#utility.yul\":2924:2925   */\n      0x00\n        /* \"#utility.yul\":2913:2922   */\n      dup4\n        /* \"#utility.yul\":2909:2926   */\n      add\n        /* \"#utility.yul\":2902:2949   */\n      mstore\n        /* \"#utility.yul\":2966:3097   */\n      tag_111\n        /* \"#utility.yul\":3092:3096   */\n      dup2\n        /* \"#utility.yul\":2966:3097   */\n      tag_75\n      jump\t// in\n    tag_111:\n        /* \"#utility.yul\":2958:3097   */\n      swap1\n      pop\n        /* \"#utility.yul\":2685:3104   */\n      swap2\n      swap1\n      pop\n      jump\t// out\n        /* \"#utility.yul\":3110:3290   */\n    tag_76:\n        /* \"#utility.yul\":3158:3235   */\n      0x4e487b7100000000000000000000000000000000000000000000000000000000\n        /* \"#utility.yul\":3155:3156   */\n      0x00\n        /* \"#utility.yul\":3148:3236   */\n      mstore\n        /* \"#utility.yul\":3255:3259   */\n      0x11\n        /* \"#utility.yul\":3252:3253   */\n      0x04\n        /* \"#utility.yul\":3245:3260   */\n      mstore\n        /* \"#utility.yul\":3279:3283   */\n      0x24\n        /* \"#utility.yul\":3276:3277   */\n      0x00\n        /* \"#utility.yul\":3269:3284   */\n      revert\n        /* \"#utility.yul\":3296:3487   */\n    tag_44:\n        /* \"#utility.yul\":3336:3339   */\n      0x00\n        /* \"#utility.yul\":3355:3375   */\n      tag_114\n        /* \"#utility.yul\":3373:3374   */\n      dup3\n        /* \"#utility.yul\":3355:3375   */\n      tag_63\n      jump\t// in\n    tag_114:\n        /* \"#utility.yul\":3350:3375   */\n      swap2\n      pop\n        /* \"#utility.yul\":3389:3409   */\n      tag_115\n        /* \"#utility.yul\":3407:3408   */\n      dup4\n        /* \"#utility.yul\":3389:3409   */\n      tag_63\n      jump\t// in\n    tag_115:\n        /* \"#utility.yul\":3384:3409   */\n      swap3\n      pop\n        /* \"#utility.yul\":3432:3433   */\n      dup3\n        /* \"#utility.yul\":3429:3430   */\n      dup3\n        /* \"#utility.yul\":3425:3434   */\n      add\n        /* \"#utility.yul\":3418:3434   */\n      swap1\n      pop\n        /* \"#utility.yul\":3453:3456   */\n      dup1\n        /* \"#utility.yul\":3450:3451   */\n      dup3\n        /* \"#utility.yul\":3447:3457   */\n      gt\n        /* \"#utility.yul\":3444:3480   */\n      iszero\n      tag_116\n      jumpi\n        /* \"#utility.yul\":3460:3478   */\n      tag_117\n      tag_76\n      jump\t// in\n    tag_117:\n        /* \"#utility.yul\":3444:3480   */\n    tag_116:\n        /* \"#utility.yul\":3296:3487   */\n      swap3\n      swap2\n      pop\n      pop\n      jump\t// out\n        /* \"#utility.yul\":3493:3661   */\n    tag_77:\n        /* \"#utility.yul\":3633:3653   */\n      0x4f776e6572207374696c6c206163746976650000000000000000000000000000\n        /* \"#utility.yul\":3629:3630   */\n      0x00\n        /* \"#utility.yul\":3621:3627   */\n      dup3\n        /* \"#utility.yul\":3617:3631   */\n      add\n        /* \"#utility.yul\":3610:3654   */\n      mstore\n        /* \"#utility.yul\":3493:3661   */\n      pop\n      jump\t// out\n        /* \"#utility.yul\":3667:4033   */\n    tag_78:\n        /* \"#utility.yul\":3809:3812   */\n      0x00\n        /* \"#utility.yul\":3830:3897   */\n      tag_120\n        /* \"#utility.yul\":3894:3896   */\n      0x12\n        /* \"#utility.yul\":3889:3892   */\n      dup4\n        /* \"#utility.yul\":3830:3897   */\n      tag_73\n      jump\t// in\n    tag_120:\n        /* \"#utility.yul\":3823:3897   */\n      swap2\n      pop\n        /* \"#utility.yul\":3906:3999   */\n      tag_121\n        /* \"#utility.yul\":3995:3998   */\n      dup3\n        /* \"#utility.yul\":3906:3999   */\n      tag_77\n      jump\t// in\n    tag_121:\n        /* \"#utility.yul\":4024:4026   */\n      0x20\n        /* \"#utility.yul\":4019:4022   */\n      dup3\n        /* \"#utility.yul\":4015:4027   */\n      add\n        /* \"#utility.yul\":4008:4027   */\n      swap1\n      pop\n        /* \"#utility.yul\":3667:4033   */\n      swap2\n      swap1\n      pop\n      jump\t// out\n        /* \"#utility.yul\":4039:4458   */\n    tag_47:\n        /* \"#utility.yul\":4205:4209   */\n      0x00\n        /* \"#utility.yul\":4243:4245   */\n      0x20\n        /* \"#utility.yul\":4232:4241   */\n      dup3\n        /* \"#utility.yul\":4228:4246   */\n      add\n        /* \"#utility.yul\":4220:4246   */\n      swap1\n      pop\n        /* \"#utility.yul\":4292:4301   */\n      dup2\n        /* \"#utility.yul\":4286:4290   */\n      dup2\n        /* \"#utility.yul\":4282:4302   */\n      sub\n        /* \"#utility.yul\":4278:4279   */\n      0x00\n        /* \"#utility.yul\":4267:4276   */\n      dup4\n        /* \"#utility.yul\":4263:4280   */\n      add\n        /* \"#utility.yul\":4256:4303   */\n      mstore\n        /* \"#utility.yul\":4320:4451   */\n      tag_123\n        /* \"#utility.yul\":4446:4450   */\n      dup2\n        /* \"#utility.yul\":4320:4451   */\n      tag_78\n      jump\t// in\n    tag_123:\n        /* \"#utility.yul\":4312:4451   */\n      swap1\n      pop\n        /* \"#utility.yul\":4039:4458   */\n      swap2\n      swap1\n      pop\n      jump\t// out\n        /* \"#utility.yul\":4464:4644   */\n    tag_79:\n        /* \"#utility.yul\":4512:4589   */\n      0x4e487b7100000000000000000000000000000000000000000000000000000000\n        /* \"#utility.yul\":4509:4510   */\n      0x00\n        /* \"#utility.yul\":4502:4590   */\n      mstore\n        /* \"#utility.yul\":4609:4613   */\n      0x12\n        /* \"#utility.yul\":4606:4607   */\n      0x04\n        /* \"#utility.yul\":4599:4614   */\n      mstore\n        /* \"#utility.yul\":4633:4637   */\n      0x24\n        /* \"#utility.yul\":4630:4631   */\n      0x00\n        /* \"#utility.yul\":4623:4638   */\n      revert\n        /* \"#utility.yul\":4650:4835   */\n    tag_49:\n        /* \"#utility.yul\":4690:4691   */\n      0x00\n        /* \"#utility.yul\":4707:4727   */\n      tag_126\n        /* \"#utility.yul\":4725:4726   */\n      dup3\n        /* \"#utility.yul\":4707:4727   */\n      tag_63\n      jump\t// in\n    tag_126:\n        /* \"#utility.yul\":4702:4727   */\n      swap2\n      pop\n        /* \"#utility.yul\":4741:4761   */\n      tag_127\n        /* \"#utility.yul\":4759:4760   */\n      dup4\n        /* \"#utility.yul\":4741:4761   */\n      tag_63\n      jump\t// in\n    tag_127:\n        /* \"#utility.yul\":4736:4761   */\n      swap3\n      pop\n        /* \"#utility.yul\":4780:4781   */\n      dup3\n        /* \"#utility.yul\":4770:4805   */\n      tag_128\n      jumpi\n        /* \"#utility.yul\":4785:4803   */\n      tag_129\n      tag_79\n      jump\t// in\n    tag_129:\n        /* \"#utility.yul\":4770:4805   */\n    tag_128:\n        /* \"#utility.yul\":4827:4828   */\n      dup3\n        /* \"#utility.yul\":4824:4825   */\n      dup3\n        /* \"#utility.yul\":4820:4829   */\n      div\n        /* \"#utility.yul\":4815:4829   */\n      swap1\n      pop\n        /* \"#utility.yul\":4650:4835   */\n      swap3\n      swap2\n      pop\n      pop\n      jump\t// out\n        /* \"#utility.yul\":4841:5021   */\n    tag_55:\n        /* \"#utility.yul\":4889:4966   */\n      0x4e487b7100000000000000000000000000000000000000000000000000000000\n        /* \"#utility.yul\":4886:4887   */\n      0x00\n        /* \"#utility.yul\":4879:4967   */\n      mstore\n        /* \"#utility.yul\":4986:4990   */\n      0x32\n        /* \"#utility.yul\":4983:4984   */\n      0x04\n        /* \"#utility.yul\":4976:4991   */\n      mstore\n        /* \"#utility.yul\":5010:5014   */\n      0x24\n        /* \"#utility.yul\":5007:5008   */\n      0x00\n        /* \"#utility.yul\":5000:5015   */\n      revert\n        /* \"#utility.yul\":5027:5359   */\n    tag_60:\n        /* \"#utility.yul\":5148:5152   */\n      0x00\n        /* \"#utility.yul\":5186:5188   */\n      0x40\n        /* \"#utility.yul\":5175:5184   */\n      dup3\n        /* \"#utility.yul\":5171:5189   */\n      add\n        /* \"#utility.yul\":5163:5189   */\n      swap1\n      pop\n        /* \"#utility.yul\":5199:5270   */\n      tag_132\n        /* \"#utility.yul\":5267:5268   */\n      0x00\n        /* \"#utility.yul\":5256:5265   */\n      dup4\n        /* \"#utility.yul\":5252:5269   */\n      add\n        /* \"#utility.yul\":5243:5249   */\n      dup6\n        /* \"#utility.yul\":5199:5270   */\n      tag_64\n      jump\t// in\n    tag_132:\n        /* \"#utility.yul\":5280:5352   */\n      tag_133\n        /* \"#utility.yul\":5348:5350   */\n      0x20\n        /* \"#utility.yul\":5337:5346   */\n      dup4\n        /* \"#utility.yul\":5333:5351   */\n      add\n        /* \"#utility.yul\":5324:5330   */\n      dup5\n        /* \"#utility.yul\":5280:5352   */\n      tag_64\n      jump\t// in\n    tag_133:\n        /* \"#utility.yul\":5027:5359   */\n      swap4\n      swap3\n      pop\n      pop\n      pop\n      jump\t// out\n\n    auxdata: 0xa2646970667358221220c60d24e4ba6a25c6a76e09b7fa0286e71df650a35e2d25dad5575d1f1b6a28cd64736f6c634300081a0033\n}\n",
				"bytecode": {
					"linkReferences": {},
					"object": "60a0604052604051610b4e380380610b4e83398181016040528101906100259190610357565b5f825111610068576040517f08c379a000000000000000000000000000000000000000000000000000000000815260040161005f9061040b565b60405180910390fd5b3373ffffffffffffffffffffffffffffffffffffffff1660808173ffffffffffffffffffffffffffffffffffffffff1681525050815f90805190602001906100b19291906100c7565b5080600281905550426001819055505050610429565b828054828255905f5260205f2090810192821561013d579160200282015b8281111561013c578251825f6101000a81548173ffffffffffffffffffffffffffffffffffffffff021916908373ffffffffffffffffffffffffffffffffffffffff160217905550916020019190600101906100e5565b5b50905061014a919061014e565b5090565b5b80821115610165575f815f90555060010161014f565b5090565b5f604051905090565b5f80fd5b5f80fd5b5f80fd5b5f601f19601f8301169050919050565b7f4e487b71000000000000000000000000000000000000000000000000000000005f52604160045260245ffd5b6101c48261017e565b810181811067ffffffffffffffff821117156101e3576101e261018e565b5b80604052505050565b5f6101f5610169565b905061020182826101bb565b919050565b5f67ffffffffffffffff8211156102205761021f61018e565b5b602082029050602081019050919050565b5f80fd5b5f73ffffffffffffffffffffffffffffffffffffffff82169050919050565b5f61025e82610235565b9050919050565b61026e81610254565b8114610278575f80fd5b50565b5f8151905061028981610265565b92915050565b5f6102a161029c84610206565b6101ec565b905080838252602082019050602084028301858111156102c4576102c3610231565b5b835b818110156102ed57806102d9888261027b565b8452602084019350506020810190506102c6565b5050509392505050565b5f82601f83011261030b5761030a61017a565b5b815161031b84826020860161028f565b91505092915050565b5f819050919050565b61033681610324565b8114610340575f80fd5b50565b5f815190506103518161032d565b92915050565b5f806040838503121561036d5761036c610172565b5b5f83015167ffffffffffffffff81111561038a57610389610176565b5b610396858286016102f7565b92505060206103a785828601610343565b9150509250929050565b5f82825260208201905092915050565b7f4e6f2062656e656669636961726965732070726f7669646564000000000000005f82015250565b5f6103f56019836103b1565b9150610400826103c1565b602082019050919050565b5f6020820190508181035f830152610422816103e9565b9050919050565b6080516107066104485f395f8181610151015261023c01526107065ff3fe608060405260043610610058575f3560e01c80632760c57e146100635780635c36b1861461008d5780636cea6b82146100a35780638da5cb5b146100cd578063ac307773146100f7578063efeb5e581461010d5761005f565b3661005f57005b5f80fd5b34801561006e575f80fd5b50610077610149565b6040516100849190610415565b60405180910390f35b348015610098575f80fd5b506100a161014f565b005b3480156100ae575f80fd5b506100b7610234565b6040516100c49190610415565b60405180910390f35b3480156100d8575f80fd5b506100e161023a565b6040516100ee919061046d565b60405180910390f35b348015610102575f80fd5b5061010b61025e565b005b348015610118575f80fd5b50610133600480360381019061012e91906104b4565b6103c3565b604051610140919061046d565b60405180910390f35b60015481565b7f000000000000000000000000000000000000000000000000000000000000000073ffffffffffffffffffffffffffffffffffffffff163373ffffffffffffffffffffffffffffffffffffffff16146101dd576040517f08c379a00000000000000000000000000000000000000000000000000000000081526004016101d490610539565b60405180910390fd5b426001819055503373ffffffffffffffffffffffffffffffffffffffff167f78a327424158f99dcde9deeb550e97c0f1d53b23ebaec3ac54a53f58504b3c854260405161022a9190610415565b60405180910390a2565b60025481565b7f000000000000000000000000000000000000000000000000000000000000000081565b60025460015461026e9190610584565b42116102af576040517f08c379a00000000000000000000000000000000000000000000000000000000081526004016102a690610601565b60405180910390fd5b5f8080549050476102c0919061064c565b90505f5b5f80549050811015610359575f81815481106102e3576102e261067c565b5b905f5260205f20015f9054906101000a900473ffffffffffffffffffffffffffffffffffffffff1673ffffffffffffffffffffffffffffffffffffffff166108fc8390811502906040515f60405180830381858888f1935050505015801561034d573d5f803e3d5ffd5b508060010190506102c4565b503373ffffffffffffffffffffffffffffffffffffffff167f987d620f307ff6b94d58743cb7a7509f24071586a77759b77c2d4e29f75a2f9a47426040516103a29291906106a9565b60405180910390a23373ffffffffffffffffffffffffffffffffffffffff16ff5b5f81815481106103d1575f80fd5b905f5260205f20015f915054906101000a900473ffffffffffffffffffffffffffffffffffffffff1681565b5f819050919050565b61040f816103fd565b82525050565b5f6020820190506104285f830184610406565b92915050565b5f73ffffffffffffffffffffffffffffffffffffffff82169050919050565b5f6104578261042e565b9050919050565b6104678161044d565b82525050565b5f6020820190506104805f83018461045e565b92915050565b5f80fd5b610493816103fd565b811461049d575f80fd5b50565b5f813590506104ae8161048a565b92915050565b5f602082840312156104c9576104c8610486565b5b5f6104d6848285016104a0565b91505092915050565b5f82825260208201905092915050565b7f4f6e6c79206f776e65722063616e2070696e67000000000000000000000000005f82015250565b5f6105236013836104df565b915061052e826104ef565b602082019050919050565b5f6020820190508181035f83015261055081610517565b9050919050565b7f4e487b71000000000000000000000000000000000000000000000000000000005f52601160045260245ffd5b5f61058e826103fd565b9150610599836103fd565b92508282019050808211156105b1576105b0610557565b5b92915050565b7f4f776e6572207374696c6c2061637469766500000000000000000000000000005f82015250565b5f6105eb6012836104df565b91506105f6826105b7565b602082019050919050565b5f6020820190508181035f830152610618816105df565b9050919050565b7f4e487b71000000000000000000000000000000000000000000000000000000005f52601260045260245ffd5b5f610656826103fd565b9150610661836103fd565b9250826106715761067061061f565b5b828204905092915050565b7f4e487b71000000000000000000000000000000000000000000000000000000005f52603260045260245ffd5b5f6040820190506106bc5f830185610406565b6106c96020830184610406565b939250505056fea2646970667358221220c60d24e4ba6a25c6a76e09b7fa0286e71df650a35e2d25dad5575d1f1b6a28cd64736f6c634300081a0033",
					"opcodes": "PUSH1 0xA0 PUSH1 0x40 MSTORE PUSH1 0x40 MLOAD PUSH2 0xB4E CODESIZE SUB DUP1 PUSH2 0xB4E DUP4 CODECOPY DUP2 DUP2 ADD PUSH1 0x40 MSTORE DUP2 ADD SWAP1 PUSH2 0x25 SWAP2 SWAP1 PUSH2 0x357 JUMP JUMPDEST PUSH0 DUP3 MLOAD GT PUSH2 0x68 JUMPI PUSH1 0x40 MLOAD PUSH32 0x8C379A000000000000000000000000000000000000000000000000000000000 DUP2 MSTORE PUSH1 0x4 ADD PUSH2 0x5F SWAP1 PUSH2 0x40B JUMP JUMPDEST PUSH1 0x40 MLOAD DUP1 SWAP2 SUB SWAP1 REVERT JUMPDEST CALLER PUSH20 0xFFFFFFFFFFFFFFFFFFFFFFFFFFFFFFFFFFFFFFFF AND PUSH1 0x80 DUP2 PUSH20 0xFFFFFFFFFFFFFFFFFFFFFFFFFFFFFFFFFFFFFFFF AND DUP2 MSTORE POP POP DUP2 PUSH0 SWAP1 DUP1 MLOAD SWAP1 PUSH1 0x20 ADD SWAP1 PUSH2 0xB1 SWAP3 SWAP2 SWAP1 PUSH2 0xC7 JUMP JUMPDEST POP DUP1 PUSH1 0x2 DUP2 SWAP1 SSTORE POP TIMESTAMP PUSH1 0x1 DUP2 SWAP1 SSTORE POP POP POP PUSH2 0x429 JUMP JUMPDEST DUP3 DUP1 SLOAD DUP3 DUP3 SSTORE SWAP1 PUSH0 MSTORE PUSH1 0x20 PUSH0 KECCAK256 SWAP1 DUP2 ADD SWAP3 DUP3 ISZERO PUSH2 0x13D JUMPI SWAP2 PUSH1 0x20 MUL DUP3 ADD JUMPDEST DUP3 DUP2 GT ISZERO PUSH2 0x13C JUMPI DUP3 MLOAD DUP3 PUSH0 PUSH2 0x100 EXP DUP2 SLOAD DUP2 PUSH20 0xFFFFFFFFFFFFFFFFFFFFFFFFFFFFFFFFFFFFFFFF MUL NOT AND SWAP1 DUP4 PUSH20 0xFFFFFFFFFFFFFFFFFFFFFFFFFFFFFFFFFFFFFFFF AND MUL OR SWAP1 SSTORE POP SWAP2 PUSH1 0x20 ADD SWAP2 SWAP1 PUSH1 0x1 ADD SWAP1 PUSH2 0xE5 JUMP JUMPDEST JUMPDEST POP SWAP1 POP PUSH2 0x14A SWAP2 SWAP1 PUSH2 0x14E JUMP JUMPDEST POP SWAP1 JUMP JUMPDEST JUMPDEST DUP1 DUP3 GT ISZERO PUSH2 0x165 JUMPI PUSH0 DUP2 PUSH0 SWAP1 SSTORE POP PUSH1 0x1 ADD PUSH2 0x14F JUMP JUMPDEST POP SWAP1 JUMP JUMPDEST PUSH0 PUSH1 0x40 MLOAD SWAP1 POP SWAP1 JUMP JUMPDEST PUSH0 DUP1 REVERT JUMPDEST PUSH0 DUP1 REVERT JUMPDEST PUSH0 DUP1 REVERT JUMPDEST PUSH0 PUSH1 0x1F NOT PUSH1 0x1F DUP4 ADD AND SWAP1 POP SWAP2 SWAP1 POP JUMP JUMPDEST PUSH32 0x4E487B7100000000000000000000000000000000000000000000000000000000 PUSH0 MSTORE PUSH1 0x41 PUSH1 0x4 MSTORE PUSH1 0x24 PUSH0 REVERT JUMPDEST PUSH2 0x1C4 DUP3 PUSH2 0x17E JUMP JUMPDEST DUP2 ADD DUP2 DUP2 LT PUSH8 0xFFFFFFFFFFFFFFFF DUP3 GT OR ISZERO PUSH2 0x1E3 JUMPI PUSH2 0x1E2 PUSH2 0x18E JUMP JUMPDEST JUMPDEST DUP1 PUSH1 0x40 MSTORE POP POP POP JUMP JUMPDEST PUSH0 PUSH2 0x1F5 PUSH2 0x169 JUMP JUMPDEST SWAP1 POP PUSH2 0x201 DUP3 DUP3 PUSH2 0x1BB JUMP JUMPDEST SWAP2 SWAP1 POP JUMP JUMPDEST PUSH0 PUSH8 0xFFFFFFFFFFFFFFFF DUP3 GT ISZERO PUSH2 0x220 JUMPI PUSH2 0x21F PUSH2 0x18E JUMP JUMPDEST JUMPDEST PUSH1 0x20 DUP3 MUL SWAP1 POP PUSH1 0x20 DUP2 ADD SWAP1 POP SWAP2 SWAP1 POP JUMP JUMPDEST PUSH0 DUP1 REVERT JUMPDEST PUSH0 PUSH20 0xFFFFFFFFFFFFFFFFFFFFFFFFFFFFFFFFFFFFFFFF DUP3 AND SWAP1 POP SWAP2 SWAP1 POP JUMP JUMPDEST PUSH0 PUSH2 0x25E DUP3 PUSH2 0x235 JUMP JUMPDEST SWAP1 POP SWAP2 SWAP1 POP JUMP JUMPDEST PUSH2 0x26E DUP2 PUSH2 0x254 JUMP JUMPDEST DUP2 EQ PUSH2 0x278 JUMPI PUSH0 DUP1 REVERT JUMPDEST POP JUMP JUMPDEST PUSH0 DUP2 MLOAD SWAP1 POP PUSH2 0x289 DUP2 PUSH2 0x265 JUMP JUMPDEST SWAP3 SWAP2 POP POP JUMP JUMPDEST PUSH0 PUSH2 0x2A1 PUSH2 0x29C DUP5 PUSH2 0x206 JUMP JUMPDEST PUSH2 0x1EC JUMP JUMPDEST SWAP1 POP DUP1 DUP4 DUP3 MSTORE PUSH1 0x20 DUP3 ADD SWAP1 POP PUSH1 0x20 DUP5 MUL DUP4 ADD DUP6 DUP2 GT ISZERO PUSH2 0x2C4 JUMPI PUSH2 0x2C3 PUSH2 0x231 JUMP JUMPDEST JUMPDEST DUP4 JUMPDEST DUP2 DUP2 LT ISZERO PUSH2 0x2ED JUMPI DUP1 PUSH2 0x2D9 DUP9 DUP3 PUSH2 0x27B JUMP JUMPDEST DUP5 MSTORE PUSH1 0x20 DUP5 ADD SWAP4 POP POP PUSH1 0x20 DUP2 ADD SWAP1 POP PUSH2 0x2C6 JUMP JUMPDEST POP POP POP SWAP4 SWAP3 POP POP POP JUMP JUMPDEST PUSH0 DUP3 PUSH1 0x1F DUP4 ADD SLT PUSH2 0x30B JUMPI PUSH2 0x30A PUSH2 0x17A JUMP JUMPDEST JUMPDEST DUP2 MLOAD PUSH2 0x31B DUP5 DUP3 PUSH1 0x20 DUP7 ADD PUSH2 0x28F JUMP JUMPDEST SWAP2 POP POP SWAP3 SWAP2 POP POP JUMP JUMPDEST PUSH0 DUP2 SWAP1 POP SWAP2 SWAP1 POP JUMP JUMPDEST PUSH2 0x336 DUP2 PUSH2 0x324 JUMP JUMPDEST DUP2 EQ PUSH2 0x340 JUMPI PUSH0 DUP1 REVERT JUMPDEST POP JUMP JUMPDEST PUSH0 DUP2 MLOAD SWAP1 POP PUSH2 0x351 DUP2 PUSH2 0x32D JUMP JUMPDEST SWAP3 SWAP2 POP POP JUMP JUMPDEST PUSH0 DUP1 PUSH1 0x40 DUP4 DUP6 SUB SLT ISZERO PUSH2 0x36D JUMPI PUSH2 0x36C PUSH2 0x172 JUMP JUMPDEST JUMPDEST PUSH0 DUP4 ADD MLOAD PUSH8 0xFFFFFFFFFFFFFFFF DUP2 GT ISZERO PUSH2 0x38A JUMPI PUSH2 0x389 PUSH2 0x176 JUMP JUMPDEST JUMPDEST PUSH2 0x396 DUP6 DUP3 DUP7 ADD PUSH2 0x2F7 JUMP JUMPDEST SWAP3 POP POP PUSH1 0x20 PUSH2 0x3A7 DUP6 DUP3 DUP7 ADD PUSH2 0x343 JUMP JUMPDEST SWAP2 POP POP SWAP3 POP SWAP3 SWAP1 POP JUMP JUMPDEST PUSH0 DUP3 DUP3 MSTORE PUSH1 0x20 DUP3 ADD SWAP1 POP SWAP3 SWAP2 POP POP JUMP JUMPDEST PUSH32 0x4E6F2062656E656669636961726965732070726F766964656400000000000000 PUSH0 DUP3 ADD MSTORE POP JUMP JUMPDEST PUSH0 PUSH2 0x3F5 PUSH1 0x19 DUP4 PUSH2 0x3B1 JUMP JUMPDEST SWAP2 POP PUSH2 0x400 DUP3 PUSH2 0x3C1 JUMP JUMPDEST PUSH1 0x20 DUP3 ADD SWAP1 POP SWAP2 SWAP1 POP JUMP JUMPDEST PUSH0 PUSH1 0x20 DUP3 ADD SWAP1 POP DUP2 DUP2 SUB PUSH0 DUP4 ADD MSTORE PUSH2 0x422 DUP2 PUSH2 0x3E9 JUMP JUMPDEST SWAP1 POP SWAP2 SWAP1 POP JUMP JUMPDEST PUSH1 0x80 MLOAD PUSH2 0x706 PUSH2 0x448 PUSH0 CODECOPY PUSH0 DUP2 DUP2 PUSH2 0x151 ADD MSTORE PUSH2 0x23C ADD MSTORE PUSH2 0x706 PUSH0 RETURN INVALID PUSH1 0x80 PUSH1 0x40 MSTORE PUSH1 0x4 CALLDATASIZE LT PUSH2 0x58 JUMPI PUSH0 CALLDATALOAD PUSH1 0xE0 SHR DUP1 PUSH4 0x2760C57E EQ PUSH2 0x63 JUMPI DUP1 PUSH4 0x5C36B186 EQ PUSH2 0x8D JUMPI DUP1 PUSH4 0x6CEA6B82 EQ PUSH2 0xA3 JUMPI DUP1 PUSH4 0x8DA5CB5B EQ PUSH2 0xCD JUMPI DUP1 PUSH4 0xAC307773 EQ PUSH2 0xF7 JUMPI DUP1 PUSH4 0xEFEB5E58 EQ PUSH2 0x10D JUMPI PUSH2 0x5F JUMP JUMPDEST CALLDATASIZE PUSH2 0x5F JUMPI STOP JUMPDEST PUSH0 DUP1 REVERT JUMPDEST CALLVALUE DUP1 ISZERO PUSH2 0x6E JUMPI PUSH0 DUP1 REVERT JUMPDEST POP PUSH2 0x77 PUSH2 0x149 JUMP JUMPDEST PUSH1 0x40 MLOAD PUSH2 0x84 SWAP2 SWAP1 PUSH2 0x415 JUMP JUMPDEST PUSH1 0x40 MLOAD DUP1 SWAP2 SUB SWAP1 RETURN JUMPDEST CALLVALUE DUP1 ISZERO PUSH2 0x98 JUMPI PUSH0 DUP1 REVERT JUMPDEST POP PUSH2 0xA1 PUSH2 0x14F JUMP JUMPDEST STOP JUMPDEST CALLVALUE DUP1 ISZERO PUSH2 0xAE JUMPI PUSH0 DUP1 REVERT JUMPDEST POP PUSH2 0xB7 PUSH2 0x234 JUMP JUMPDEST PUSH1 0x40 MLOAD PUSH2 0xC4 SWAP2 SWAP1 PUSH2 0x415 JUMP JUMPDEST PUSH1 0x40 MLOAD DUP1 SWAP2 SUB SWAP1 RETURN JUMPDEST CALLVALUE DUP1 ISZERO PUSH2 0xD8 JUMPI PUSH0 DUP1 REVERT JUMPDEST POP PUSH2 0xE1 PUSH2 0x23A JUMP JUMPDEST PUSH1 0x40 MLOAD PUSH2 0xEE SWAP2 SWAP1 PUSH2 0x46D JUMP JUMPDEST PUSH1 0x40 MLOAD DUP1 SWAP2 SUB SWAP1 RETURN JUMPDEST CALLVALUE DUP1 ISZERO PUSH2 0x102 JUMPI PUSH0 DUP1 REVERT JUMPDEST POP PUSH2 0x10B PUSH2 0x25E JUMP JUMPDEST STOP JUMPDEST CALLVALUE DUP1 ISZERO PUSH2 0x118 JUMPI PUSH0 DUP1 REVERT JUMPDEST POP PUSH2 0x133 PUSH1 0x4 DUP1 CALLDATASIZE SUB DUP2 ADD SWAP1 PUSH2 0x12E SWAP2 SWAP1 PUSH2 0x4B4 JUMP JUMPDEST PUSH2 0x3C3 JUMP JUMPDEST PUSH1 0x40 MLOAD PUSH2 0x140 SWAP2 SWAP1 PUSH2 0x46D JUMP JUMPDEST PUSH1 0x40 MLOAD DUP1 SWAP2 SUB SWAP1 RETURN JUMPDEST PUSH1 0x1 SLOAD DUP2 JUMP JUMPDEST PUSH32 0x0 PUSH20 0xFFFFFFFFFFFFFFFFFFFFFFFFFFFFFFFFFFFFFFFF AND CALLER PUSH20 0xFFFFFFFFFFFFFFFFFFFFFFFFFFFFFFFFFFFFFFFF AND EQ PUSH2 0x1DD JUMPI PUSH1 0x40 MLOAD PUSH32 0x8C379A000000000000000000000000000000000000000000000000000000000 DUP2 MSTORE PUSH1 0x4 ADD PUSH2 0x1D4 SWAP1 PUSH2 0x539 JUMP JUMPDEST PUSH1 0x40 MLOAD DUP1 SWAP2 SUB SWAP1 REVERT JUMPDEST TIMESTAMP PUSH1 0x1 DUP2 SWAP1 SSTORE POP CALLER PUSH20 0xFFFFFFFFFFFFFFFFFFFFFFFFFFFFFFFFFFFFFFFF AND PUSH32 0x78A327424158F99DCDE9DEEB550E97C0F1D53B23EBAEC3AC54A53F58504B3C85 TIMESTAMP PUSH1 0x40 MLOAD PUSH2 0x22A SWAP2 SWAP1 PUSH2 0x415 JUMP JUMPDEST PUSH1 0x40 MLOAD DUP1 SWAP2 SUB SWAP1 LOG2 JUMP JUMPDEST PUSH1 0x2 SLOAD DUP2 JUMP JUMPDEST PUSH32 0x0 DUP2 JUMP JUMPDEST PUSH1 0x2 SLOAD PUSH1 0x1 SLOAD PUSH2 0x26E SWAP2 SWAP1 PUSH2 0x584 JUMP JUMPDEST TIMESTAMP GT PUSH2 0x2AF JUMPI PUSH1 0x40 MLOAD PUSH32 0x8C379A000000000000000000000000000000000000000000000000000000000 DUP2 MSTORE PUSH1 0x4 ADD PUSH2 0x2A6 SWAP1 PUSH2 0x601 JUMP JUMPDEST PUSH1 0x40 MLOAD DUP1 SWAP2 SUB SWAP1 REVERT JUMPDEST PUSH0 DUP1 DUP1 SLOAD SWAP1 POP SELFBALANCE PUSH2 0x2C0 SWAP2 SWAP1 PUSH2 0x64C JUMP JUMPDEST SWAP1 POP PUSH0 JUMPDEST PUSH0 DUP1 SLOAD SWAP1 POP DUP2 LT ISZERO PUSH2 0x359 JUMPI PUSH0 DUP2 DUP2 SLOAD DUP2 LT PUSH2 0x2E3 JUMPI PUSH2 0x2E2 PUSH2 0x67C JUMP JUMPDEST JUMPDEST SWAP1 PUSH0 MSTORE PUSH1 0x20 PUSH0 KECCAK256 ADD PUSH0 SWAP1 SLOAD SWAP1 PUSH2 0x100 EXP SWAP1 DIV PUSH20 0xFFFFFFFFFFFFFFFFFFFFFFFFFFFFFFFFFFFFFFFF AND PUSH20 0xFFFFFFFFFFFFFFFFFFFFFFFFFFFFFFFFFFFFFFFF AND PUSH2 0x8FC DUP4 SWAP1 DUP2 ISZERO MUL SWAP1 PUSH1 0x40 MLOAD PUSH0 PUSH1 0x40 MLOAD DUP1 DUP4 SUB DUP2 DUP6 DUP9 DUP9 CALL SWAP4 POP POP POP POP ISZERO DUP1 ISZERO PUSH2 0x34D JUMPI RETURNDATASIZE PUSH0 DUP1 RETURNDATACOPY RETURNDATASIZE PUSH0 REVERT JUMPDEST POP DUP1 PUSH1 0x1 ADD SWAP1 POP PUSH2 0x2C4 JUMP JUMPDEST POP CALLER PUSH20 0xFFFFFFFFFFFFFFFFFFFFFFFFFFFFFFFFFFFFFFFF AND PUSH32 0x987D620F307FF6B94D58743CB7A7509F24071586A77759B77C2D4E29F75A2F9A SELFBALANCE TIMESTAMP PUSH1 0x40 MLOAD PUSH2 0x3A2 SWAP3 SWAP2 SWAP1 PUSH2 0x6A9 JUMP JUMPDEST PUSH1 0x40 MLOAD DUP1 SWAP2 SUB SWAP1 LOG2 CALLER PUSH20 0xFFFFFFFFFFFFFFFFFFFFFFFFFFFFFFFFFFFFFFFF AND SELFDESTRUCT JUMPDEST PUSH0 DUP2 DUP2 SLOAD DUP2 LT PUSH2 0x3D1 JUMPI PUSH0 DUP1 REVERT JUMPDEST SWAP1 PUSH0 MSTORE PUSH1 0x20 PUSH0 KECCAK256 ADD PUSH0 SWAP2 POP SLOAD SWAP1 PUSH2 0x100 EXP SWAP1 DIV PUSH20 0xFFFFFFFFFFFFFFFFFFFFFFFFFFFFFFFFFFFFFFFF AND DUP2 JUMP JUMPDEST PUSH0 DUP2 SWAP1 POP SWAP2 SWAP1 POP JUMP JUMPDEST PUSH2 0x40F DUP2 PUSH2 0x3FD JUMP JUMPDEST DUP3 MSTORE POP POP JUMP JUMPDEST PUSH0 PUSH1 0x20 DUP3 ADD SWAP1 POP PUSH2 0x428 PUSH0 DUP4 ADD DUP5 PUSH2 0x406 JUMP JUMPDEST SWAP3 SWAP2 POP POP JUMP JUMPDEST PUSH0 PUSH20 0xFFFFFFFFFFFFFFFFFFFFFFFFFFFFFFFFFFFFFFFF DUP3 AND SWAP1 POP SWAP2 SWAP1 POP JUMP JUMPDEST PUSH0 PUSH2 0x457 DUP3 PUSH2 0x42E JUMP JUMPDEST SWAP1 POP SWAP2 SWAP1 POP JUMP JUMPDEST PUSH2 0x467 DUP2 PUSH2 0x44D JUMP JUMPDEST DUP3 MSTORE POP POP JUMP JUMPDEST PUSH0 PUSH1 0x20 DUP3 ADD SWAP1 POP PUSH2 0x480 PUSH0 DUP4 ADD DUP5 PUSH2 0x45E JUMP JUMPDEST SWAP3 SWAP2 POP POP JUMP JUMPDEST PUSH0 DUP1 REVERT JUMPDEST PUSH2 0x493 DUP2 PUSH2 0x3FD JUMP JUMPDEST DUP2 EQ PUSH2 0x49D JUMPI PUSH0 DUP1 REVERT JUMPDEST POP JUMP JUMPDEST PUSH0 DUP2 CALLDATALOAD SWAP1 POP PUSH2 0x4AE DUP2 PUSH2 0x48A JUMP JUMPDEST SWAP3 SWAP2 POP POP JUMP JUMPDEST PUSH0 PUSH1 0x20 DUP3 DUP5 SUB SLT ISZERO PUSH2 0x4C9 JUMPI PUSH2 0x4C8 PUSH2 0x486 JUMP JUMPDEST JUMPDEST PUSH0 PUSH2 0x4D6 DUP5 DUP3 DUP6 ADD PUSH2 0x4A0 JUMP JUMPDEST SWAP2 POP POP SWAP3 SWAP2 POP POP JUMP JUMPDEST PUSH0 DUP3 DUP3 MSTORE PUSH1 0x20 DUP3 ADD SWAP1 POP SWAP3 SWAP2 POP POP JUMP JUMPDEST PUSH32 0x4F6E6C79206F776E65722063616E2070696E6700000000000000000000000000 PUSH0 DUP3 ADD MSTORE POP JUMP JUMPDEST PUSH0 PUSH2 0x523 PUSH1 0x13 DUP4 PUSH2 0x4DF JUMP JUMPDEST SWAP2 POP PUSH2 0x52E DUP3 PUSH2 0x4EF JUMP JUMPDEST PUSH1 0x20 DUP3 ADD SWAP1 POP SWAP2 SWAP1 POP JUMP JUMPDEST PUSH0 PUSH1 0x20 DUP3 ADD SWAP1 POP DUP2 DUP2 SUB PUSH0 DUP4 ADD MSTORE PUSH2 0x550 DUP2 PUSH2 0x517 JUMP JUMPDEST SWAP1 POP SWAP2 SWAP1 POP JUMP JUMPDEST PUSH32 0x4E487B7100000000000000000000000000000000000000000000000000000000 PUSH0 MSTORE PUSH1 0x11 PUSH1 0x4 MSTORE PUSH1 0x24 PUSH0 REVERT JUMPDEST PUSH0 PUSH2 0x58E DUP3 PUSH2 0x3FD JUMP JUMPDEST SWAP2 POP PUSH2 0x599 DUP4 PUSH2 0x3FD JUMP JUMPDEST SWAP3 POP DUP3 DUP3 ADD SWAP1 POP DUP1 DUP3 GT ISZERO PUSH2 0x5B1 JUMPI PUSH2 0x5B0 PUSH2 0x557 JUMP JUMPDEST JUMPDEST SWAP3 SWAP2 POP POP JUMP JUMPDEST PUSH32 0x4F776E6572207374696C6C206163746976650000000000000000000000000000 PUSH0 DUP3 ADD MSTORE POP JUMP JUMPDEST PUSH0 PUSH2 0x5EB PUSH1 0x12 DUP4 PUSH2 0x4DF JUMP JUMPDEST SWAP2 POP PUSH2 0x5F6 DUP3 PUSH2 0x5B7 JUMP JUMPDEST PUSH1 0x20 DUP3 ADD SWAP1 POP SWAP2 SWAP1 POP JUMP JUMPDEST PUSH0 PUSH1 0x20 DUP3 ADD SWAP1 POP DUP2 DUP2 SUB PUSH0 DUP4 ADD MSTORE PUSH2 0x618 DUP2 PUSH2 0x5DF JUMP JUMPDEST SWAP1 POP SWAP2 SWAP1 POP JUMP JUMPDEST PUSH32 0x4E487B7100000000000000000000000000000000000000000000000000000000 PUSH0 MSTORE PUSH1 0x12 PUSH1 0x4 MSTORE PUSH1 0x24 PUSH0 REVERT JUMPDEST PUSH0 PUSH2 0x656 DUP3 PUSH2 0x3FD JUMP JUMPDEST SWAP2 POP PUSH2 0x661 DUP4 PUSH2 0x3FD JUMP JUMPDEST SWAP3 POP DUP3 PUSH2 0x671 JUMPI PUSH2 0x670 PUSH2 0x61F JUMP JUMPDEST JUMPDEST DUP3 DUP3 DIV SWAP1 POP SWAP3 SWAP2 POP POP JUMP JUMPDEST PUSH32 0x4E487B7100000000000000000000000000000000000000000000000000000000 PUSH0 MSTORE PUSH1 0x32 PUSH1 0x4 MSTORE PUSH1 0x24 PUSH0 REVERT JUMPDEST PUSH0 PUSH1 0x40 DUP3 ADD SWAP1 POP PUSH2 0x6BC PUSH0 DUP4 ADD DUP6 PUSH2 0x406 JUMP JUMPDEST PUSH2 0x6C9 PUSH1 0x20 DUP4 ADD DUP5 PUSH2 0x406 JUMP JUMPDEST SWAP4 SWAP3 POP POP POP JUMP INVALID LOG2 PUSH5 0x6970667358 0x22 SLT KECCAK256 0xC6 0xD 0x24 0xE4 0xBA PUSH11 0x25C6A76E09B7FA0286E71D 0xF6 POP LOG3 MCOPY 0x2D 0x25 0xDA 0xD5 JUMPI TSTORE 0x1F SHL PUSH11 0x28CD64736F6C634300081A STOP CALLER "
				},
				"gasEstimates": {
					"creation": {
						"codeDepositCost": "359600",
						"executionCost": "infinite",
						"totalCost": "infinite"
					},
					"external": {
						"beneficiaries(uint256)": "5031",
						"claimFunds()": "infinite",
						"lastPing()": "2403",
						"owner()": "infinite",
						"ping()": "infinite",
						"timeoutPeriod()": "2447"
					}
				},
				"methodIdentifiers": {
					"beneficiaries(uint256)": "efeb5e58",
					"claimFunds()": "ac307773",
					"lastPing()": "2760c57e",
					"owner()": "8da5cb5b",
					"ping()": "5c36b186",
					"timeoutPeriod()": "6cea6b82"
				}
			},
			"storageLayout": {
				"storage": [
					{
						"astId": 7,
						"contract": "contracts/TransCryptoDApp/TransCryptoGen.sol:DeadManSwitchMulti",
						"label": "beneficiaries",
						"offset": 0,
						"slot": "0",
						"type": "t_array(t_address)dyn_storage"
					},
					{
						"astId": 9,
						"contract": "contracts/TransCryptoDApp/TransCryptoGen.sol:DeadManSwitchMulti",
						"label": "lastPing",
						"offset": 0,
						"slot": "1",
						"type": "t_uint256"
					},
					{
						"astId": 11,
						"contract": "contracts/TransCryptoDApp/TransCryptoGen.sol:DeadManSwitchMulti",
						"label": "timeoutPeriod",
						"offset": 0,
						"slot": "2",
						"type": "t_uint256"
					}
				],
				"types": {
					"t_address": {
						"encoding": "inplace",
						"label": "address",
						"numberOfBytes": "20"
					},
					"t_array(t_address)dyn_storage": {
						"base": "t_address",
						"encoding": "dynamic_array",
						"label": "address[]",
						"numberOfBytes": "32"
					},
					"t_uint256": {
						"encoding": "inplace",
						"label": "uint256",
						"numberOfBytes": "32"
					}
				}
			},
			"userdoc": {
				"events": {
					"Claimed(address,uint256,uint256)": {
						"notice": "Emitted when funds are claimed and contract is destructed"
					},
					"Pinged(address,uint256)": {
						"notice": "Emitted when the owner pings to stay alive"
					}
				},
				"kind": "user",
				"methods": {
					"claimFunds()": {
						"notice": "Transfers ETH equally to all beneficiaries if owner has not pinged in time"
					},
					"ping()": {
						"notice": "Called by the owner to reset the inactivity timer"
					}
				},
				"notice": "Releases funds to multiple beneficiaries if owner is inactive past a timeout",
				"version": 1
			}
		}
	}
}